{
  "_format": "hh-sol-artifact-1",
  "contractName": "LabelDelivery",
  "sourceName": "contracts/LabelDelivery.sol",
  "abi": [
    {
      "inputs": [
        {
          "internalType": "address",
          "name": "_labelContract",
          "type": "address"
        }
      ],
      "stateMutability": "nonpayable",
      "type": "constructor"
    },
    {
      "inputs": [
        {
          "internalType": "address",
          "name": "sender",
          "type": "address"
        },
        {
          "internalType": "uint256",
          "name": "balance",
          "type": "uint256"
        },
        {
          "internalType": "uint256",
          "name": "needed",
          "type": "uint256"
        },
        {
          "internalType": "uint256",
          "name": "tokenId",
          "type": "uint256"
        }
      ],
      "name": "ERC1155InsufficientBalance",
      "type": "error"
    },
    {
      "inputs": [
        {
          "internalType": "address",
          "name": "approver",
          "type": "address"
        }
      ],
      "name": "ERC1155InvalidApprover",
      "type": "error"
    },
    {
      "inputs": [
        {
          "internalType": "uint256",
          "name": "idsLength",
          "type": "uint256"
        },
        {
          "internalType": "uint256",
          "name": "valuesLength",
          "type": "uint256"
        }
      ],
      "name": "ERC1155InvalidArrayLength",
      "type": "error"
    },
    {
      "inputs": [
        {
          "internalType": "address",
          "name": "operator",
          "type": "address"
        }
      ],
      "name": "ERC1155InvalidOperator",
      "type": "error"
    },
    {
      "inputs": [
        {
          "internalType": "address",
          "name": "receiver",
          "type": "address"
        }
      ],
      "name": "ERC1155InvalidReceiver",
      "type": "error"
    },
    {
      "inputs": [
        {
          "internalType": "address",
          "name": "sender",
          "type": "address"
        }
      ],
      "name": "ERC1155InvalidSender",
      "type": "error"
    },
    {
      "inputs": [
        {
          "internalType": "address",
          "name": "operator",
          "type": "address"
        },
        {
          "internalType": "address",
          "name": "owner",
          "type": "address"
        }
      ],
      "name": "ERC1155MissingApprovalForAll",
      "type": "error"
    },
    {
      "inputs": [],
      "name": "NotAllowedLabel",
      "type": "error"
    },
    {
      "inputs": [
        {
          "internalType": "address",
          "name": "actor",
          "type": "address"
        }
      ],
      "name": "NotTransferable",
      "type": "error"
    },
    {
      "anonymous": false,
      "inputs": [
        {
          "indexed": true,
          "internalType": "address",
          "name": "account",
          "type": "address"
        },
        {
          "indexed": true,
          "internalType": "address",
          "name": "operator",
          "type": "address"
        },
        {
          "indexed": false,
          "internalType": "bool",
          "name": "approved",
          "type": "bool"
        }
      ],
      "name": "ApprovalForAll",
      "type": "event"
    },
    {
      "anonymous": false,
      "inputs": [
        {
          "indexed": true,
          "internalType": "address",
          "name": "actor",
          "type": "address"
        },
        {
          "indexed": true,
          "internalType": "uint256",
          "name": "labelId",
          "type": "uint256"
        },
        {
          "indexed": false,
          "internalType": "bool",
          "name": "certified",
          "type": "bool"
        }
      ],
      "name": "Certified",
      "type": "event"
    },
    {
      "anonymous": false,
      "inputs": [
        {
          "indexed": true,
          "internalType": "address",
          "name": "operator",
          "type": "address"
        },
        {
          "indexed": true,
          "internalType": "address",
          "name": "from",
          "type": "address"
        },
        {
          "indexed": true,
          "internalType": "address",
          "name": "to",
          "type": "address"
        },
        {
          "indexed": false,
          "internalType": "uint256[]",
          "name": "ids",
          "type": "uint256[]"
        },
        {
          "indexed": false,
          "internalType": "uint256[]",
          "name": "values",
          "type": "uint256[]"
        }
      ],
      "name": "TransferBatch",
      "type": "event"
    },
    {
      "anonymous": false,
      "inputs": [
        {
          "indexed": true,
          "internalType": "address",
          "name": "operator",
          "type": "address"
        },
        {
          "indexed": true,
          "internalType": "address",
          "name": "from",
          "type": "address"
        },
        {
          "indexed": true,
          "internalType": "address",
          "name": "to",
          "type": "address"
        },
        {
          "indexed": false,
          "internalType": "uint256",
          "name": "id",
          "type": "uint256"
        },
        {
          "indexed": false,
          "internalType": "uint256",
          "name": "value",
          "type": "uint256"
        }
      ],
      "name": "TransferSingle",
      "type": "event"
    },
    {
      "anonymous": false,
      "inputs": [
        {
          "indexed": false,
          "internalType": "string",
          "name": "value",
          "type": "string"
        },
        {
          "indexed": true,
          "internalType": "uint256",
          "name": "id",
          "type": "uint256"
        }
      ],
      "name": "URI",
      "type": "event"
    },
    {
      "inputs": [
        {
          "internalType": "address",
          "name": "account",
          "type": "address"
        },
        {
          "internalType": "uint256",
          "name": "id",
          "type": "uint256"
        }
      ],
      "name": "balanceOf",
      "outputs": [
        {
          "internalType": "uint256",
          "name": "",
          "type": "uint256"
        }
      ],
      "stateMutability": "view",
      "type": "function"
    },
    {
      "inputs": [
        {
          "internalType": "address[]",
          "name": "accounts",
          "type": "address[]"
        },
        {
          "internalType": "uint256[]",
          "name": "ids",
          "type": "uint256[]"
        }
      ],
      "name": "balanceOfBatch",
      "outputs": [
        {
          "internalType": "uint256[]",
          "name": "",
          "type": "uint256[]"
        }
      ],
      "stateMutability": "view",
      "type": "function"
    },
    {
      "inputs": [
        {
          "internalType": "address",
          "name": "_actor",
          "type": "address"
        },
        {
          "internalType": "uint256",
          "name": "_labelId",
          "type": "uint256"
        }
      ],
      "name": "certify",
      "outputs": [],
      "stateMutability": "nonpayable",
      "type": "function"
    },
    {
      "inputs": [
        {
          "internalType": "address",
          "name": "account",
          "type": "address"
        },
        {
          "internalType": "address",
          "name": "operator",
          "type": "address"
        }
      ],
      "name": "isApprovedForAll",
      "outputs": [
        {
          "internalType": "bool",
          "name": "",
          "type": "bool"
        }
      ],
      "stateMutability": "view",
      "type": "function"
    },
    {
      "inputs": [
        {
          "internalType": "address",
          "name": "_actor",
          "type": "address"
        },
        {
          "internalType": "uint256",
          "name": "_labelId",
          "type": "uint256"
        }
      ],
      "name": "isCertified",
      "outputs": [
        {
          "internalType": "bool",
          "name": "",
          "type": "bool"
        }
      ],
      "stateMutability": "view",
      "type": "function"
    },
    {
      "inputs": [
        {
          "internalType": "address",
          "name": "_actor",
          "type": "address"
        },
        {
          "internalType": "uint256",
          "name": "_labelId",
          "type": "uint256"
        }
      ],
      "name": "revoke",
      "outputs": [],
      "stateMutability": "nonpayable",
      "type": "function"
    },
    {
      "inputs": [
        {
          "internalType": "address",
          "name": "",
          "type": "address"
        },
        {
          "internalType": "address",
          "name": "",
          "type": "address"
        },
        {
          "internalType": "uint256[]",
          "name": "",
          "type": "uint256[]"
        },
        {
          "internalType": "uint256[]",
          "name": "",
          "type": "uint256[]"
        },
        {
          "internalType": "bytes",
          "name": "",
          "type": "bytes"
        }
      ],
      "name": "safeBatchTransferFrom",
      "outputs": [],
      "stateMutability": "view",
      "type": "function"
    },
    {
      "inputs": [
        {
          "internalType": "address",
          "name": "",
          "type": "address"
        },
        {
          "internalType": "address",
          "name": "",
          "type": "address"
        },
        {
          "internalType": "uint256",
          "name": "",
          "type": "uint256"
        },
        {
          "internalType": "uint256",
          "name": "",
          "type": "uint256"
        },
        {
          "internalType": "bytes",
          "name": "",
          "type": "bytes"
        }
      ],
      "name": "safeTransferFrom",
      "outputs": [],
      "stateMutability": "view",
      "type": "function"
    },
    {
      "inputs": [
        {
          "internalType": "address",
          "name": "operator",
          "type": "address"
        },
        {
          "internalType": "bool",
          "name": "approved",
          "type": "bool"
        }
      ],
      "name": "setApprovalForAll",
      "outputs": [],
      "stateMutability": "nonpayable",
      "type": "function"
    },
    {
      "inputs": [
        {
          "internalType": "bytes4",
          "name": "interfaceId",
          "type": "bytes4"
        }
      ],
      "name": "supportsInterface",
      "outputs": [
        {
          "internalType": "bool",
          "name": "",
          "type": "bool"
        }
      ],
      "stateMutability": "view",
      "type": "function"
    },
    {
      "inputs": [
        {
          "internalType": "uint256",
          "name": "",
          "type": "uint256"
        }
      ],
      "name": "uri",
      "outputs": [
        {
          "internalType": "string",
          "name": "",
          "type": "string"
        }
      ],
      "stateMutability": "view",
      "type": "function"
    }
  ],
  "bytecode": "0x60a06040523480156200001157600080fd5b50604051620025f3380380620025f3833981810160405281019062000037919062000113565b6040518060200160405280600081525062000058816200009460201b60201c565b508073ffffffffffffffffffffffffffffffffffffffff1660808173ffffffffffffffffffffffffffffffffffffffff168152505050620004a6565b8060029081620000a59190620003bf565b5050565b600080fd5b600073ffffffffffffffffffffffffffffffffffffffff82169050919050565b6000620000db82620000ae565b9050919050565b620000ed81620000ce565b8114620000f957600080fd5b50565b6000815190506200010d81620000e2565b92915050565b6000602082840312156200012c576200012b620000a9565b5b60006200013c84828501620000fc565b91505092915050565b600081519050919050565b7f4e487b7100000000000000000000000000000000000000000000000000000000600052604160045260246000fd5b7f4e487b7100000000000000000000000000000000000000000000000000000000600052602260045260246000fd5b60006002820490506001821680620001c757607f821691505b602082108103620001dd57620001dc6200017f565b5b50919050565b60008190508160005260206000209050919050565b60006020601f8301049050919050565b600082821b905092915050565b600060088302620002477fffffffffffffffffffffffffffffffffffffffffffffffffffffffffffffffff8262000208565b62000253868362000208565b95508019841693508086168417925050509392505050565b6000819050919050565b6000819050919050565b6000620002a06200029a62000294846200026b565b62000275565b6200026b565b9050919050565b6000819050919050565b620002bc836200027f565b620002d4620002cb82620002a7565b84845462000215565b825550505050565b600090565b620002eb620002dc565b620002f8818484620002b1565b505050565b5b81811015620003205762000314600082620002e1565b600181019050620002fe565b5050565b601f8211156200036f576200033981620001e3565b6200034484620001f8565b8101602085101562000354578190505b6200036c6200036385620001f8565b830182620002fd565b50505b505050565b600082821c905092915050565b6000620003946000198460080262000374565b1980831691505092915050565b6000620003af838362000381565b9150826002028217905092915050565b620003ca8262000145565b67ffffffffffffffff811115620003e657620003e562000150565b5b620003f28254620001ae565b620003ff82828562000324565b600060209050601f83116001811462000437576000841562000422578287015190505b6200042e8582620003a1565b8655506200049e565b601f1984166200044786620001e3565b60005b8281101562000471578489015182556001820191506020850194506020810190506200044a565b868310156200049157848901516200048d601f89168262000381565b8355505b6001600288020188555050505b505050505050565b60805161212a620004c9600039600081816105a4015261078e015261212a6000f3fe608060405234801561001057600080fd5b50600436106100a85760003560e01c80634e1273f4116100715780634e1273f414610189578063a22cb465146101b9578063ad0fc0cc146101d5578063e985e9c5146101f1578063eac449d914610221578063f242432a1461023d576100a8565b8062fdd58e146100ad57806301ffc9a7146100dd5780630e89341c1461010d5780632eb2c2d61461013d5780633d04658c14610159575b600080fd5b6100c760048036038101906100c291906114f9565b610259565b6040516100d49190611548565b60405180910390f35b6100f760048036038101906100f291906115bb565b6102b3565b6040516101049190611603565b60405180910390f35b6101276004803603810190610122919061161e565b610395565b60405161013491906116db565b60405180910390f35b610157600480360381019061015291906118fa565b610429565b005b610173600480360381019061016e91906114f9565b610466565b6040516101809190611603565b60405180910390f35b6101a3600480360381019061019e9190611a8c565b61047c565b6040516101b09190611bc2565b60405180910390f35b6101d360048036038101906101ce9190611c10565b61058b565b005b6101ef60048036038101906101ea91906114f9565b6105a1565b005b61020b60048036038101906102069190611c50565b6106f7565b6040516102189190611603565b60405180910390f35b61023b600480360381019061023691906114f9565b61078b565b005b61025760048036038101906102529190611c90565b6108d2565b005b600080600083815260200190815260200160002060008473ffffffffffffffffffffffffffffffffffffffff1673ffffffffffffffffffffffffffffffffffffffff16815260200190815260200160002054905092915050565b60007fd9b67a26000000000000000000000000000000000000000000000000000000007bffffffffffffffffffffffffffffffffffffffffffffffffffffffff1916827bffffffffffffffffffffffffffffffffffffffffffffffffffffffff1916148061037e57507f0e89341c000000000000000000000000000000000000000000000000000000007bffffffffffffffffffffffffffffffffffffffffffffffffffffffff1916827bffffffffffffffffffffffffffffffffffffffffffffffffffffffff1916145b8061038e575061038d8261090f565b5b9050919050565b6060600280546103a490611d56565b80601f01602080910402602001604051908101604052809291908181526020018280546103d090611d56565b801561041d5780601f106103f25761010080835404028352916020019161041d565b820191906000526020600020905b81548152906001019060200180831161040057829003601f168201915b50505050509050919050565b336040517fd13916ed00000000000000000000000000000000000000000000000000000000815260040161045d9190611d96565b60405180910390fd5b6000806104738484610259565b11905092915050565b606081518351146104c857815183516040517f5b0599910000000000000000000000000000000000000000000000000000000081526004016104bf929190611db1565b60405180910390fd5b6000835167ffffffffffffffff8111156104e5576104e4611702565b5b6040519080825280602002602001820160405280156105135781602001602082028036833780820191505090505b50905060005b845181101561058057610550610538828761097990919063ffffffff16565b61054b838761098d90919063ffffffff16565b610259565b82828151811061056357610562611dda565b5b6020026020010181815250508061057990611e38565b9050610519565b508091505092915050565b61059d6105966109a1565b83836109a9565b5050565b807f000000000000000000000000000000000000000000000000000000000000000073ffffffffffffffffffffffffffffffffffffffff16635faa299a82336040518363ffffffff1660e01b81526004016105fd929190611e80565b602060405180830381865afa15801561061a573d6000803e3d6000fd5b505050506040513d601f19601f8201168201806040525081019061063e9190611ebe565b610674576040517f5fc302a500000000000000000000000000000000000000000000000000000000815260040160405180910390fd5b60006106808484610259565b036106f2576106a18383600160405180602001604052806000815250610b19565b818373ffffffffffffffffffffffffffffffffffffffff167fe7b2f46250d4b18d40e5f652745157e07c3efeea7bb59d9a811af90cf405b6ac60016040516106e99190611603565b60405180910390a35b505050565b6000600160008473ffffffffffffffffffffffffffffffffffffffff1673ffffffffffffffffffffffffffffffffffffffff16815260200190815260200160002060008373ffffffffffffffffffffffffffffffffffffffff1673ffffffffffffffffffffffffffffffffffffffff16815260200190815260200160002060009054906101000a900460ff16905092915050565b807f000000000000000000000000000000000000000000000000000000000000000073ffffffffffffffffffffffffffffffffffffffff16635faa299a82336040518363ffffffff1660e01b81526004016107e7929190611e80565b602060405180830381865afa158015610804573d6000803e3d6000fd5b505050506040513d601f19601f820116820180604052508101906108289190611ebe565b61085e576040517f5fc302a500000000000000000000000000000000000000000000000000000000815260040160405180910390fd5b600061086a8484610259565b11156108cd5761087c83836001610bb2565b818373ffffffffffffffffffffffffffffffffffffffff167fe7b2f46250d4b18d40e5f652745157e07c3efeea7bb59d9a811af90cf405b6ac60006040516108c49190611603565b60405180910390a35b505050565b336040517fd13916ed0000000000000000000000000000000000000000000000000000000081526004016109069190611d96565b60405180910390fd5b60007f01ffc9a7000000000000000000000000000000000000000000000000000000007bffffffffffffffffffffffffffffffffffffffffffffffffffffffff1916827bffffffffffffffffffffffffffffffffffffffffffffffffffffffff1916149050919050565b600060208202602084010151905092915050565b600060208202602084010151905092915050565b600033905090565b600073ffffffffffffffffffffffffffffffffffffffff168273ffffffffffffffffffffffffffffffffffffffff1603610a1b5760006040517fced3e100000000000000000000000000000000000000000000000000000000008152600401610a129190611d96565b60405180910390fd5b80600160008573ffffffffffffffffffffffffffffffffffffffff1673ffffffffffffffffffffffffffffffffffffffff16815260200190815260200160002060008473ffffffffffffffffffffffffffffffffffffffff1673ffffffffffffffffffffffffffffffffffffffff16815260200190815260200160002060006101000a81548160ff0219169083151502179055508173ffffffffffffffffffffffffffffffffffffffff168373ffffffffffffffffffffffffffffffffffffffff167f17307eab39ab6107e8899845ad3d59bd9653f200f220920489ca2b5937696c3183604051610b0c9190611603565b60405180910390a3505050565b600073ffffffffffffffffffffffffffffffffffffffff168473ffffffffffffffffffffffffffffffffffffffff1603610b8b5760006040517f57f447ce000000000000000000000000000000000000000000000000000000008152600401610b829190611d96565b60405180910390fd5b600080610b988585610c59565b91509150610baa600087848487610c89565b505050505050565b600073ffffffffffffffffffffffffffffffffffffffff168373ffffffffffffffffffffffffffffffffffffffff1603610c245760006040517f01a83514000000000000000000000000000000000000000000000000000000008152600401610c1b9190611d96565b60405180910390fd5b600080610c318484610c59565b91509150610c52856000848460405180602001604052806000815250610c89565b5050505050565b60608060405191506001825283602083015260408201905060018152826020820152604081016040529250929050565b610c9585858585610d3b565b600073ffffffffffffffffffffffffffffffffffffffff168473ffffffffffffffffffffffffffffffffffffffff1614610d34576000610cd36109a1565b90506001845103610d23576000610cf460008661098d90919063ffffffff16565b90506000610d0c60008661098d90919063ffffffff16565b9050610d1c8389898585896110e9565b5050610d32565b610d3181878787878761129d565b5b505b5050505050565b8051825114610d8557815181516040517f5b059991000000000000000000000000000000000000000000000000000000008152600401610d7c929190611db1565b60405180910390fd5b6000610d8f6109a1565b905060005b8351811015610fa4576000610db2828661098d90919063ffffffff16565b90506000610dc9838661098d90919063ffffffff16565b9050600073ffffffffffffffffffffffffffffffffffffffff168873ffffffffffffffffffffffffffffffffffffffff1614610ef657600080600084815260200190815260200160002060008a73ffffffffffffffffffffffffffffffffffffffff1673ffffffffffffffffffffffffffffffffffffffff16815260200190815260200160002054905081811015610e9e57888183856040517f03dee4c5000000000000000000000000000000000000000000000000000000008152600401610e959493929190611eeb565b60405180910390fd5b81810360008085815260200190815260200160002060008b73ffffffffffffffffffffffffffffffffffffffff1673ffffffffffffffffffffffffffffffffffffffff16815260200190815260200160002081905550505b600073ffffffffffffffffffffffffffffffffffffffff168773ffffffffffffffffffffffffffffffffffffffff1614610f91578060008084815260200190815260200160002060008973ffffffffffffffffffffffffffffffffffffffff1673ffffffffffffffffffffffffffffffffffffffff1681526020019081526020016000206000828254610f899190611f30565b925050819055505b505080610f9d90611e38565b9050610d94565b506001835103611063576000610fc460008561098d90919063ffffffff16565b90506000610fdc60008561098d90919063ffffffff16565b90508573ffffffffffffffffffffffffffffffffffffffff168773ffffffffffffffffffffffffffffffffffffffff168473ffffffffffffffffffffffffffffffffffffffff167fc3d58168c5ae7397731d063d5bbf3d657854427343f4c083240f7aacaa2d0f628585604051611054929190611db1565b60405180910390a450506110e2565b8373ffffffffffffffffffffffffffffffffffffffff168573ffffffffffffffffffffffffffffffffffffffff168273ffffffffffffffffffffffffffffffffffffffff167f4a39dc06d4c0dbc64b70af90fd698a233a518aa5d07e595d983b8c0526c8f7fb86866040516110d9929190611f64565b60405180910390a45b5050505050565b60008473ffffffffffffffffffffffffffffffffffffffff163b1115611295578373ffffffffffffffffffffffffffffffffffffffff1663f23a6e6187878686866040518663ffffffff1660e01b815260040161114a959493929190611ff0565b6020604051808303816000875af192505050801561118657506040513d601f19601f82011682018060405250810190611183919061205f565b60015b61120a573d80600081146111b6576040519150601f19603f3d011682016040523d82523d6000602084013e6111bb565b606091505b50600081510361120257846040517f57f447ce0000000000000000000000000000000000000000000000000000000081526004016111f99190611d96565b60405180910390fd5b805181602001fd5b63f23a6e6160e01b7bffffffffffffffffffffffffffffffffffffffffffffffffffffffff1916817bffffffffffffffffffffffffffffffffffffffffffffffffffffffff19161461129357846040517f57f447ce00000000000000000000000000000000000000000000000000000000815260040161128a9190611d96565b60405180910390fd5b505b505050505050565b60008473ffffffffffffffffffffffffffffffffffffffff163b1115611449578373ffffffffffffffffffffffffffffffffffffffff1663bc197c8187878686866040518663ffffffff1660e01b81526004016112fe95949392919061208c565b6020604051808303816000875af192505050801561133a57506040513d601f19601f82011682018060405250810190611337919061205f565b60015b6113be573d806000811461136a576040519150601f19603f3d011682016040523d82523d6000602084013e61136f565b606091505b5060008151036113b657846040517f57f447ce0000000000000000000000000000000000000000000000000000000081526004016113ad9190611d96565b60405180910390fd5b805181602001fd5b63bc197c8160e01b7bffffffffffffffffffffffffffffffffffffffffffffffffffffffff1916817bffffffffffffffffffffffffffffffffffffffffffffffffffffffff19161461144757846040517f57f447ce00000000000000000000000000000000000000000000000000000000815260040161143e9190611d96565b60405180910390fd5b505b505050505050565b6000604051905090565b600080fd5b600080fd5b600073ffffffffffffffffffffffffffffffffffffffff82169050919050565b600061149082611465565b9050919050565b6114a081611485565b81146114ab57600080fd5b50565b6000813590506114bd81611497565b92915050565b6000819050919050565b6114d6816114c3565b81146114e157600080fd5b50565b6000813590506114f3816114cd565b92915050565b600080604083850312156115105761150f61145b565b5b600061151e858286016114ae565b925050602061152f858286016114e4565b9150509250929050565b611542816114c3565b82525050565b600060208201905061155d6000830184611539565b92915050565b60007fffffffff0000000000000000000000000000000000000000000000000000000082169050919050565b61159881611563565b81146115a357600080fd5b50565b6000813590506115b58161158f565b92915050565b6000602082840312156115d1576115d061145b565b5b60006115df848285016115a6565b91505092915050565b60008115159050919050565b6115fd816115e8565b82525050565b600060208201905061161860008301846115f4565b92915050565b6000602082840312156116345761163361145b565b5b6000611642848285016114e4565b91505092915050565b600081519050919050565b600082825260208201905092915050565b60005b8381101561168557808201518184015260208101905061166a565b60008484015250505050565b6000601f19601f8301169050919050565b60006116ad8261164b565b6116b78185611656565b93506116c7818560208601611667565b6116d081611691565b840191505092915050565b600060208201905081810360008301526116f581846116a2565b905092915050565b600080fd5b7f4e487b7100000000000000000000000000000000000000000000000000000000600052604160045260246000fd5b61173a82611691565b810181811067ffffffffffffffff8211171561175957611758611702565b5b80604052505050565b600061176c611451565b90506117788282611731565b919050565b600067ffffffffffffffff82111561179857611797611702565b5b602082029050602081019050919050565b600080fd5b60006117c16117bc8461177d565b611762565b905080838252602082019050602084028301858111156117e4576117e36117a9565b5b835b8181101561180d57806117f988826114e4565b8452602084019350506020810190506117e6565b5050509392505050565b600082601f83011261182c5761182b6116fd565b5b813561183c8482602086016117ae565b91505092915050565b600080fd5b600067ffffffffffffffff82111561186557611864611702565b5b61186e82611691565b9050602081019050919050565b82818337600083830152505050565b600061189d6118988461184a565b611762565b9050828152602081018484840111156118b9576118b8611845565b5b6118c484828561187b565b509392505050565b600082601f8301126118e1576118e06116fd565b5b81356118f184826020860161188a565b91505092915050565b600080600080600060a086880312156119165761191561145b565b5b6000611924888289016114ae565b9550506020611935888289016114ae565b945050604086013567ffffffffffffffff81111561195657611955611460565b5b61196288828901611817565b935050606086013567ffffffffffffffff81111561198357611982611460565b5b61198f88828901611817565b925050608086013567ffffffffffffffff8111156119b0576119af611460565b5b6119bc888289016118cc565b9150509295509295909350565b600067ffffffffffffffff8211156119e4576119e3611702565b5b602082029050602081019050919050565b6000611a08611a03846119c9565b611762565b90508083825260208201905060208402830185811115611a2b57611a2a6117a9565b5b835b81811015611a545780611a4088826114ae565b845260208401935050602081019050611a2d565b5050509392505050565b600082601f830112611a7357611a726116fd565b5b8135611a838482602086016119f5565b91505092915050565b60008060408385031215611aa357611aa261145b565b5b600083013567ffffffffffffffff811115611ac157611ac0611460565b5b611acd85828601611a5e565b925050602083013567ffffffffffffffff811115611aee57611aed611460565b5b611afa85828601611817565b9150509250929050565b600081519050919050565b600082825260208201905092915050565b6000819050602082019050919050565b611b39816114c3565b82525050565b6000611b4b8383611b30565b60208301905092915050565b6000602082019050919050565b6000611b6f82611b04565b611b798185611b0f565b9350611b8483611b20565b8060005b83811015611bb5578151611b9c8882611b3f565b9750611ba783611b57565b925050600181019050611b88565b5085935050505092915050565b60006020820190508181036000830152611bdc8184611b64565b905092915050565b611bed816115e8565b8114611bf857600080fd5b50565b600081359050611c0a81611be4565b92915050565b60008060408385031215611c2757611c2661145b565b5b6000611c35858286016114ae565b9250506020611c4685828601611bfb565b9150509250929050565b60008060408385031215611c6757611c6661145b565b5b6000611c75858286016114ae565b9250506020611c86858286016114ae565b9150509250929050565b600080600080600060a08688031215611cac57611cab61145b565b5b6000611cba888289016114ae565b9550506020611ccb888289016114ae565b9450506040611cdc888289016114e4565b9350506060611ced888289016114e4565b925050608086013567ffffffffffffffff811115611d0e57611d0d611460565b5b611d1a888289016118cc565b9150509295509295909350565b7f4e487b7100000000000000000000000000000000000000000000000000000000600052602260045260246000fd5b60006002820490506001821680611d6e57607f821691505b602082108103611d8157611d80611d27565b5b50919050565b611d9081611485565b82525050565b6000602082019050611dab6000830184611d87565b92915050565b6000604082019050611dc66000830185611539565b611dd36020830184611539565b9392505050565b7f4e487b7100000000000000000000000000000000000000000000000000000000600052603260045260246000fd5b7f4e487b7100000000000000000000000000000000000000000000000000000000600052601160045260246000fd5b6000611e43826114c3565b91507fffffffffffffffffffffffffffffffffffffffffffffffffffffffffffffffff8203611e7557611e74611e09565b5b600182019050919050565b6000604082019050611e956000830185611539565b611ea26020830184611d87565b9392505050565b600081519050611eb881611be4565b92915050565b600060208284031215611ed457611ed361145b565b5b6000611ee284828501611ea9565b91505092915050565b6000608082019050611f006000830187611d87565b611f0d6020830186611539565b611f1a6040830185611539565b611f276060830184611539565b95945050505050565b6000611f3b826114c3565b9150611f46836114c3565b9250828201905080821115611f5e57611f5d611e09565b5b92915050565b60006040820190508181036000830152611f7e8185611b64565b90508181036020830152611f928184611b64565b90509392505050565b600081519050919050565b600082825260208201905092915050565b6000611fc282611f9b565b611fcc8185611fa6565b9350611fdc818560208601611667565b611fe581611691565b840191505092915050565b600060a0820190506120056000830188611d87565b6120126020830187611d87565b61201f6040830186611539565b61202c6060830185611539565b818103608083015261203e8184611fb7565b90509695505050505050565b6000815190506120598161158f565b92915050565b6000602082840312156120755761207461145b565b5b60006120838482850161204a565b91505092915050565b600060a0820190506120a16000830188611d87565b6120ae6020830187611d87565b81810360408301526120c08186611b64565b905081810360608301526120d48185611b64565b905081810360808301526120e88184611fb7565b9050969550505050505056fea2646970667358221220434d84e14d7de83ffaa193bdb3073c2557858c0677a64dd85abeda328827bb5364736f6c63430008140033",
  "linkReferences": {},
  "deployedLinkReferences": {}
}