{
  "_format": "hh-sol-artifact-1",
  "contractName": "Label",
  "sourceName": "contracts/Label.sol",
  "abi": [
    {
      "inputs": [],
      "stateMutability": "nonpayable",
      "type": "constructor"
    },
    {
      "inputs": [
        {
          "internalType": "address",
          "name": "sender",
          "type": "address"
        },
        {
          "internalType": "uint256",
          "name": "tokenId",
          "type": "uint256"
        },
        {
          "internalType": "address",
          "name": "owner",
          "type": "address"
        }
      ],
      "name": "ERC721IncorrectOwner",
      "type": "error"
    },
    {
      "inputs": [
        {
          "internalType": "address",
          "name": "operator",
          "type": "address"
        },
        {
          "internalType": "uint256",
          "name": "tokenId",
          "type": "uint256"
        }
      ],
      "name": "ERC721InsufficientApproval",
      "type": "error"
    },
    {
      "inputs": [
        {
          "internalType": "address",
          "name": "approver",
          "type": "address"
        }
      ],
      "name": "ERC721InvalidApprover",
      "type": "error"
    },
    {
      "inputs": [
        {
          "internalType": "address",
          "name": "operator",
          "type": "address"
        }
      ],
      "name": "ERC721InvalidOperator",
      "type": "error"
    },
    {
      "inputs": [
        {
          "internalType": "address",
          "name": "owner",
          "type": "address"
        }
      ],
      "name": "ERC721InvalidOwner",
      "type": "error"
    },
    {
      "inputs": [
        {
          "internalType": "address",
          "name": "receiver",
          "type": "address"
        }
      ],
      "name": "ERC721InvalidReceiver",
      "type": "error"
    },
    {
      "inputs": [
        {
          "internalType": "address",
          "name": "sender",
          "type": "address"
        }
      ],
      "name": "ERC721InvalidSender",
      "type": "error"
    },
    {
      "inputs": [
        {
          "internalType": "uint256",
          "name": "tokenId",
          "type": "uint256"
        }
      ],
      "name": "ERC721NonexistentToken",
      "type": "error"
    },
    {
      "inputs": [
        {
          "internalType": "address",
          "name": "actor",
          "type": "address"
        }
      ],
      "name": "NotTransferable",
      "type": "error"
    },
    {
      "inputs": [
        {
          "internalType": "address",
          "name": "owner",
          "type": "address"
        }
      ],
      "name": "OwnableInvalidOwner",
      "type": "error"
    },
    {
      "inputs": [
        {
          "internalType": "address",
          "name": "account",
          "type": "address"
        }
      ],
      "name": "OwnableUnauthorizedAccount",
      "type": "error"
    },
    {
      "inputs": [
        {
          "internalType": "uint256",
          "name": "tokenId",
          "type": "uint256"
        }
      ],
      "name": "UnknownLabel",
      "type": "error"
    },
    {
      "anonymous": false,
      "inputs": [
        {
          "indexed": true,
          "internalType": "address",
          "name": "owner",
          "type": "address"
        },
        {
          "indexed": true,
          "internalType": "address",
          "name": "approved",
          "type": "address"
        },
        {
          "indexed": true,
          "internalType": "uint256",
          "name": "tokenId",
          "type": "uint256"
        }
      ],
      "name": "Approval",
      "type": "event"
    },
    {
      "anonymous": false,
      "inputs": [
        {
          "indexed": true,
          "internalType": "address",
          "name": "owner",
          "type": "address"
        },
        {
          "indexed": true,
          "internalType": "address",
          "name": "operator",
          "type": "address"
        },
        {
          "indexed": false,
          "internalType": "bool",
          "name": "approved",
          "type": "bool"
        }
      ],
      "name": "ApprovalForAll",
      "type": "event"
    },
    {
      "anonymous": false,
      "inputs": [
        {
          "indexed": false,
          "internalType": "uint256",
          "name": "_fromTokenId",
          "type": "uint256"
        },
        {
          "indexed": false,
          "internalType": "uint256",
          "name": "_toTokenId",
          "type": "uint256"
        }
      ],
      "name": "BatchMetadataUpdate",
      "type": "event"
    },
    {
      "anonymous": false,
      "inputs": [
        {
          "indexed": true,
          "internalType": "uint256",
          "name": "tokenId",
          "type": "uint256"
        },
        {
          "indexed": true,
          "internalType": "bool",
          "name": "allowed",
          "type": "bool"
        }
      ],
      "name": "LabelAllowed",
      "type": "event"
    },
    {
      "anonymous": false,
      "inputs": [
        {
          "indexed": true,
          "internalType": "address",
          "name": "owner",
          "type": "address"
        },
        {
          "indexed": false,
          "internalType": "uint256",
          "name": "tokenId",
          "type": "uint256"
        }
      ],
      "name": "LabelSubmitted",
      "type": "event"
    },
    {
      "anonymous": false,
      "inputs": [
        {
          "indexed": false,
          "internalType": "uint256",
          "name": "_tokenId",
          "type": "uint256"
        }
      ],
      "name": "MetadataUpdate",
      "type": "event"
    },
    {
      "anonymous": false,
      "inputs": [
        {
          "indexed": true,
          "internalType": "address",
          "name": "previousOwner",
          "type": "address"
        },
        {
          "indexed": true,
          "internalType": "address",
          "name": "newOwner",
          "type": "address"
        }
      ],
      "name": "OwnershipTransferred",
      "type": "event"
    },
    {
      "anonymous": false,
      "inputs": [
        {
          "indexed": true,
          "internalType": "address",
          "name": "from",
          "type": "address"
        },
        {
          "indexed": true,
          "internalType": "address",
          "name": "to",
          "type": "address"
        },
        {
          "indexed": true,
          "internalType": "uint256",
          "name": "tokenId",
          "type": "uint256"
        }
      ],
      "name": "Transfer",
      "type": "event"
    },
    {
      "inputs": [
        {
          "internalType": "uint256",
          "name": "_tokenId",
          "type": "uint256"
        },
        {
          "internalType": "bool",
          "name": "_allowed",
          "type": "bool"
        }
      ],
      "name": "allowLabel",
      "outputs": [],
      "stateMutability": "nonpayable",
      "type": "function"
    },
    {
      "inputs": [
        {
          "internalType": "address",
          "name": "to",
          "type": "address"
        },
        {
          "internalType": "uint256",
          "name": "tokenId",
          "type": "uint256"
        }
      ],
      "name": "approve",
      "outputs": [],
      "stateMutability": "nonpayable",
      "type": "function"
    },
    {
      "inputs": [
        {
          "internalType": "address",
          "name": "owner",
          "type": "address"
        }
      ],
      "name": "balanceOf",
      "outputs": [
        {
          "internalType": "uint256",
          "name": "",
          "type": "uint256"
        }
      ],
      "stateMutability": "view",
      "type": "function"
    },
    {
      "inputs": [
        {
          "internalType": "uint256",
          "name": "tokenId",
          "type": "uint256"
        }
      ],
      "name": "getApproved",
      "outputs": [
        {
          "internalType": "address",
          "name": "",
          "type": "address"
        }
      ],
      "stateMutability": "view",
      "type": "function"
    },
    {
      "inputs": [
        {
          "internalType": "uint256",
          "name": "_tokenId",
          "type": "uint256"
        }
      ],
      "name": "isAllowed",
      "outputs": [
        {
          "internalType": "bool",
          "name": "",
          "type": "bool"
        }
      ],
      "stateMutability": "view",
      "type": "function"
    },
    {
      "inputs": [
        {
          "internalType": "uint256",
          "name": "_tokenId",
          "type": "uint256"
        },
        {
          "internalType": "address",
          "name": "_to",
          "type": "address"
        }
      ],
      "name": "isAllowed",
      "outputs": [
        {
          "internalType": "bool",
          "name": "",
          "type": "bool"
        }
      ],
      "stateMutability": "view",
      "type": "function"
    },
    {
      "inputs": [
        {
          "internalType": "address",
          "name": "owner",
          "type": "address"
        },
        {
          "internalType": "address",
          "name": "operator",
          "type": "address"
        }
      ],
      "name": "isApprovedForAll",
      "outputs": [
        {
          "internalType": "bool",
          "name": "",
          "type": "bool"
        }
      ],
      "stateMutability": "view",
      "type": "function"
    },
    {
      "inputs": [],
      "name": "name",
      "outputs": [
        {
          "internalType": "string",
          "name": "",
          "type": "string"
        }
      ],
      "stateMutability": "view",
      "type": "function"
    },
    {
      "inputs": [],
      "name": "owner",
      "outputs": [
        {
          "internalType": "address",
          "name": "",
          "type": "address"
        }
      ],
      "stateMutability": "view",
      "type": "function"
    },
    {
      "inputs": [
        {
          "internalType": "uint256",
          "name": "tokenId",
          "type": "uint256"
        }
      ],
      "name": "ownerOf",
      "outputs": [
        {
          "internalType": "address",
          "name": "",
          "type": "address"
        }
      ],
      "stateMutability": "view",
      "type": "function"
    },
    {
      "inputs": [],
      "name": "renounceOwnership",
      "outputs": [],
      "stateMutability": "nonpayable",
      "type": "function"
    },
    {
      "inputs": [
        {
          "internalType": "address",
          "name": "from",
          "type": "address"
        },
        {
          "internalType": "address",
          "name": "to",
          "type": "address"
        },
        {
          "internalType": "uint256",
          "name": "tokenId",
          "type": "uint256"
        }
      ],
      "name": "safeTransferFrom",
      "outputs": [],
      "stateMutability": "nonpayable",
      "type": "function"
    },
    {
      "inputs": [
        {
          "internalType": "address",
          "name": "",
          "type": "address"
        },
        {
          "internalType": "address",
          "name": "",
          "type": "address"
        },
        {
          "internalType": "uint256",
          "name": "",
          "type": "uint256"
        },
        {
          "internalType": "bytes",
          "name": "",
          "type": "bytes"
        }
      ],
      "name": "safeTransferFrom",
      "outputs": [],
      "stateMutability": "view",
      "type": "function"
    },
    {
      "inputs": [
        {
          "internalType": "address",
          "name": "operator",
          "type": "address"
        },
        {
          "internalType": "bool",
          "name": "approved",
          "type": "bool"
        }
      ],
      "name": "setApprovalForAll",
      "outputs": [],
      "stateMutability": "nonpayable",
      "type": "function"
    },
    {
      "inputs": [
        {
          "internalType": "string",
          "name": "_tokenURI",
          "type": "string"
        }
      ],
      "name": "submitLabel",
      "outputs": [],
      "stateMutability": "nonpayable",
      "type": "function"
    },
    {
      "inputs": [
        {
          "internalType": "bytes4",
          "name": "interfaceId",
          "type": "bytes4"
        }
      ],
      "name": "supportsInterface",
      "outputs": [
        {
          "internalType": "bool",
          "name": "",
          "type": "bool"
        }
      ],
      "stateMutability": "view",
      "type": "function"
    },
    {
      "inputs": [],
      "name": "symbol",
      "outputs": [
        {
          "internalType": "string",
          "name": "",
          "type": "string"
        }
      ],
      "stateMutability": "view",
      "type": "function"
    },
    {
      "inputs": [
        {
          "internalType": "uint256",
          "name": "tokenId",
          "type": "uint256"
        }
      ],
      "name": "tokenURI",
      "outputs": [
        {
          "internalType": "string",
          "name": "",
          "type": "string"
        }
      ],
      "stateMutability": "view",
      "type": "function"
    },
    {
      "inputs": [
        {
          "internalType": "address",
          "name": "",
          "type": "address"
        },
        {
          "internalType": "address",
          "name": "",
          "type": "address"
        },
        {
          "internalType": "uint256",
          "name": "",
          "type": "uint256"
        }
      ],
      "name": "transferFrom",
      "outputs": [],
      "stateMutability": "view",
      "type": "function"
    },
    {
      "inputs": [
        {
          "internalType": "address",
          "name": "newOwner",
          "type": "address"
        }
      ],
      "name": "transferOwnership",
      "outputs": [],
      "stateMutability": "nonpayable",
      "type": "function"
    }
  ],
  "bytecode": "0x60806040523480156200001157600080fd5b506040518060400160405280601081526020017f526f62696e576f6f64204c6162656c73000000000000000000000000000000008152506040518060400160405280600381526020017f52574c000000000000000000000000000000000000000000000000000000000081525033600073ffffffffffffffffffffffffffffffffffffffff168173ffffffffffffffffffffffffffffffffffffffff1603620000f45760006040517f1e4fbdf7000000000000000000000000000000000000000000000000000000008152600401620000eb91906200023b565b60405180910390fd5b62000105816200013260201b60201c565b508160019081620001179190620004d2565b508060029081620001299190620004d2565b505050620005b9565b60008060009054906101000a900473ffffffffffffffffffffffffffffffffffffffff169050816000806101000a81548173ffffffffffffffffffffffffffffffffffffffff021916908373ffffffffffffffffffffffffffffffffffffffff1602179055508173ffffffffffffffffffffffffffffffffffffffff168173ffffffffffffffffffffffffffffffffffffffff167f8be0079c531659141344cd1fd0a4f28419497f9722a3daafe3b4186f6b6457e060405160405180910390a35050565b600073ffffffffffffffffffffffffffffffffffffffff82169050919050565b60006200022382620001f6565b9050919050565b620002358162000216565b82525050565b60006020820190506200025260008301846200022a565b92915050565b600081519050919050565b7f4e487b7100000000000000000000000000000000000000000000000000000000600052604160045260246000fd5b7f4e487b7100000000000000000000000000000000000000000000000000000000600052602260045260246000fd5b60006002820490506001821680620002da57607f821691505b602082108103620002f057620002ef62000292565b5b50919050565b60008190508160005260206000209050919050565b60006020601f8301049050919050565b600082821b905092915050565b6000600883026200035a7fffffffffffffffffffffffffffffffffffffffffffffffffffffffffffffffff826200031b565b6200036686836200031b565b95508019841693508086168417925050509392505050565b6000819050919050565b6000819050919050565b6000620003b3620003ad620003a7846200037e565b62000388565b6200037e565b9050919050565b6000819050919050565b620003cf8362000392565b620003e7620003de82620003ba565b84845462000328565b825550505050565b600090565b620003fe620003ef565b6200040b818484620003c4565b505050565b5b81811015620004335762000427600082620003f4565b60018101905062000411565b5050565b601f82111562000482576200044c81620002f6565b62000457846200030b565b8101602085101562000467578190505b6200047f62000476856200030b565b83018262000410565b50505b505050565b600082821c905092915050565b6000620004a76000198460080262000487565b1980831691505092915050565b6000620004c2838362000494565b9150826002028217905092915050565b620004dd8262000258565b67ffffffffffffffff811115620004f957620004f862000263565b5b620005058254620002c1565b6200051282828562000437565b600060209050601f8311600181146200054a576000841562000535578287015190505b620005418582620004b4565b865550620005b1565b601f1984166200055a86620002f6565b60005b8281101562000584578489015182556001820191506020850194506020810190506200055d565b86831015620005a45784890151620005a0601f89168262000494565b8355505b6001600288020188555050505b505050505050565b6125a380620005c96000396000f3fe608060405234801561001057600080fd5b506004361061012c5760003560e01c8063715018a6116100ad578063bc8cd74511610071578063bc8cd74514610341578063c87b56dd1461035d578063df592f291461038d578063e985e9c5146103a9578063f2fde38b146103d95761012c565b8063715018a6146102c35780638da5cb5b146102cd57806395d89b41146102eb578063a22cb46514610309578063b88d4fde146103255761012c565b806342842e0e116100f457806342842e0e146101e75780635c5f6ede146102035780635faa299a146102335780636352211e1461026357806370a08231146102935761012c565b806301ffc9a71461013157806306fdde0314610161578063081812fc1461017f578063095ea7b3146101af57806323b872dd146101cb575b600080fd5b61014b60048036038101906101469190611ae5565b6103f5565b6040516101589190611b2d565b60405180910390f35b610169610456565b6040516101769190611bd8565b60405180910390f35b61019960048036038101906101949190611c30565b6104e8565b6040516101a69190611c9e565b60405180910390f35b6101c960048036038101906101c49190611ce5565b610504565b005b6101e560048036038101906101e09190611d25565b61051a565b005b61020160048036038101906101fc9190611d25565b610557565b005b61021d60048036038101906102189190611c30565b610577565b60405161022a9190611b2d565b60405180910390f35b61024d60048036038101906102489190611d78565b6105a1565b60405161025a9190611b2d565b60405180910390f35b61027d60048036038101906102789190611c30565b61060b565b60405161028a9190611c9e565b60405180910390f35b6102ad60048036038101906102a89190611db8565b61061d565b6040516102ba9190611df4565b60405180910390f35b6102cb6106d7565b005b6102d56106eb565b6040516102e29190611c9e565b60405180910390f35b6102f3610714565b6040516103009190611bd8565b60405180910390f35b610323600480360381019061031e9190611e3b565b6107a6565b005b61033f600480360381019061033a9190611fb0565b6107bc565b005b61035b60048036038101906103569190612033565b6107f9565b005b61037760048036038101906103729190611c30565b6108d9565b6040516103849190611bd8565b60405180910390f35b6103a760048036038101906103a291906120d3565b6109ec565b005b6103c360048036038101906103be9190612120565b610ae3565b6040516103d09190611b2d565b60405180910390f35b6103f360048036038101906103ee9190611db8565b610b77565b005b6000634906490660e01b7bffffffffffffffffffffffffffffffffffffffffffffffffffffffff1916827bffffffffffffffffffffffffffffffffffffffffffffffffffffffff1916148061044f575061044e82610bfd565b5b9050919050565b6060600180546104659061218f565b80601f01602080910402602001604051908101604052809291908181526020018280546104919061218f565b80156104de5780601f106104b3576101008083540402835291602001916104de565b820191906000526020600020905b8154815290600101906020018083116104c157829003601f168201915b5050505050905090565b60006104f382610cdf565b506104fd82610d67565b9050919050565b6105168282610511610da4565b610dac565b5050565b336040517fd13916ed00000000000000000000000000000000000000000000000000000000815260040161054e9190611c9e565b60405180910390fd5b610572838383604051806020016040528060008152506107bc565b505050565b60006009600083815260200190815260200160002060009054906101000a900460ff169050919050565b60006009600084815260200190815260200160002060009054906101000a900460ff16801561060357508173ffffffffffffffffffffffffffffffffffffffff166105eb84610dbe565b73ffffffffffffffffffffffffffffffffffffffff16145b905092915050565b600061061682610cdf565b9050919050565b60008073ffffffffffffffffffffffffffffffffffffffff168273ffffffffffffffffffffffffffffffffffffffff16036106905760006040517f89c62b640000000000000000000000000000000000000000000000000000000081526004016106879190611c9e565b60405180910390fd5b600460008373ffffffffffffffffffffffffffffffffffffffff1673ffffffffffffffffffffffffffffffffffffffff168152602001908152602001600020549050919050565b6106df610dfb565b6106e96000610e82565b565b60008060009054906101000a900473ffffffffffffffffffffffffffffffffffffffff16905090565b6060600280546107239061218f565b80601f016020809104026020016040519081016040528092919081815260200182805461074f9061218f565b801561079c5780601f106107715761010080835404028352916020019161079c565b820191906000526020600020905b81548152906001019060200180831161077f57829003601f168201915b5050505050905090565b6107b86107b1610da4565b8383610f46565b5050565b336040517fd13916ed0000000000000000000000000000000000000000000000000000000081526004016107f09190611c9e565b60405180910390fd5b610801610dfb565b600073ffffffffffffffffffffffffffffffffffffffff1661082283610dbe565b73ffffffffffffffffffffffffffffffffffffffff160361087a57816040517f96215e390000000000000000000000000000000000000000000000000000000081526004016108719190611df4565b60405180910390fd5b806009600084815260200190815260200160002060006101000a81548160ff021916908315150217905550801515827fc6fef4fbcc7c2d7e11a0f15e8eeba7ecd9e4aaf2f9c9fde0dec8c31a511be1f860405160405180910390a35050565b60606108e482610cdf565b5060006007600084815260200190815260200160002080546109059061218f565b80601f01602080910402602001604051908101604052809291908181526020018280546109319061218f565b801561097e5780601f106109535761010080835404028352916020019161097e565b820191906000526020600020905b81548152906001019060200180831161096157829003601f168201915b50505050509050600061098f6110b5565b905060008151036109a45781925050506109e7565b6000825111156109d95780826040516020016109c19291906121fc565b604051602081830303815290604052925050506109e7565b6109e2846110cc565b925050505b919050565b600060086000815480929190610a019061224f565b919050559050610a113382611135565b610a5f8184848080601f016020809104026020016040519081016040528093929190818152602001838380828437600081840152601f19601f8201169050808301925050505050505061122e565b3373ffffffffffffffffffffffffffffffffffffffff167fab0f1cdb81dbeba83a8a71666573bf525270de4320449d8e607ab32c19eb921b82604051610aa59190611df4565b60405180910390a260001515817fc6fef4fbcc7c2d7e11a0f15e8eeba7ecd9e4aaf2f9c9fde0dec8c31a511be1f860405160405180910390a3505050565b6000600660008473ffffffffffffffffffffffffffffffffffffffff1673ffffffffffffffffffffffffffffffffffffffff16815260200190815260200160002060008373ffffffffffffffffffffffffffffffffffffffff1673ffffffffffffffffffffffffffffffffffffffff16815260200190815260200160002060009054906101000a900460ff16905092915050565b610b7f610dfb565b600073ffffffffffffffffffffffffffffffffffffffff168173ffffffffffffffffffffffffffffffffffffffff1603610bf15760006040517f1e4fbdf7000000000000000000000000000000000000000000000000000000008152600401610be89190611c9e565b60405180910390fd5b610bfa81610e82565b50565b60007f80ac58cd000000000000000000000000000000000000000000000000000000007bffffffffffffffffffffffffffffffffffffffffffffffffffffffff1916827bffffffffffffffffffffffffffffffffffffffffffffffffffffffff19161480610cc857507f5b5e139f000000000000000000000000000000000000000000000000000000007bffffffffffffffffffffffffffffffffffffffffffffffffffffffff1916827bffffffffffffffffffffffffffffffffffffffffffffffffffffffff1916145b80610cd85750610cd78261128a565b5b9050919050565b600080610ceb83610dbe565b9050600073ffffffffffffffffffffffffffffffffffffffff168173ffffffffffffffffffffffffffffffffffffffff1603610d5e57826040517f7e273289000000000000000000000000000000000000000000000000000000008152600401610d559190611df4565b60405180910390fd5b80915050919050565b60006005600083815260200190815260200160002060009054906101000a900473ffffffffffffffffffffffffffffffffffffffff169050919050565b600033905090565b610db983838360016112f4565b505050565b60006003600083815260200190815260200160002060009054906101000a900473ffffffffffffffffffffffffffffffffffffffff169050919050565b610e03610da4565b73ffffffffffffffffffffffffffffffffffffffff16610e216106eb565b73ffffffffffffffffffffffffffffffffffffffff1614610e8057610e44610da4565b6040517f118cdaa7000000000000000000000000000000000000000000000000000000008152600401610e779190611c9e565b60405180910390fd5b565b60008060009054906101000a900473ffffffffffffffffffffffffffffffffffffffff169050816000806101000a81548173ffffffffffffffffffffffffffffffffffffffff021916908373ffffffffffffffffffffffffffffffffffffffff1602179055508173ffffffffffffffffffffffffffffffffffffffff168173ffffffffffffffffffffffffffffffffffffffff167f8be0079c531659141344cd1fd0a4f28419497f9722a3daafe3b4186f6b6457e060405160405180910390a35050565b600073ffffffffffffffffffffffffffffffffffffffff168273ffffffffffffffffffffffffffffffffffffffff1603610fb757816040517f5b08ba18000000000000000000000000000000000000000000000000000000008152600401610fae9190611c9e565b60405180910390fd5b80600660008573ffffffffffffffffffffffffffffffffffffffff1673ffffffffffffffffffffffffffffffffffffffff16815260200190815260200160002060008473ffffffffffffffffffffffffffffffffffffffff1673ffffffffffffffffffffffffffffffffffffffff16815260200190815260200160002060006101000a81548160ff0219169083151502179055508173ffffffffffffffffffffffffffffffffffffffff168373ffffffffffffffffffffffffffffffffffffffff167f17307eab39ab6107e8899845ad3d59bd9653f200f220920489ca2b5937696c31836040516110a89190611b2d565b60405180910390a3505050565b606060405180602001604052806000815250905090565b60606110d782610cdf565b5060006110e26110b5565b90506000815111611102576040518060200160405280600081525061112d565b8061110c846114b9565b60405160200161111d9291906121fc565b6040516020818303038152906040525b915050919050565b600073ffffffffffffffffffffffffffffffffffffffff168273ffffffffffffffffffffffffffffffffffffffff16036111a75760006040517f64a0ae9200000000000000000000000000000000000000000000000000000000815260040161119e9190611c9e565b60405180910390fd5b60006111b583836000611587565b9050600073ffffffffffffffffffffffffffffffffffffffff168173ffffffffffffffffffffffffffffffffffffffff16146112295760006040517f73c6ac6e0000000000000000000000000000000000000000000000000000000081526004016112209190611c9e565b60405180910390fd5b505050565b8060076000848152602001908152602001600020908161124e9190612443565b507ff8e1a15aba9398e019f0b49df1a4fde98ee17ae345cb5f6b5e2c27f5033e8ce78260405161127e9190611df4565b60405180910390a15050565b60007f01ffc9a7000000000000000000000000000000000000000000000000000000007bffffffffffffffffffffffffffffffffffffffffffffffffffffffff1916827bffffffffffffffffffffffffffffffffffffffffffffffffffffffff1916149050919050565b808061132d5750600073ffffffffffffffffffffffffffffffffffffffff168273ffffffffffffffffffffffffffffffffffffffff1614155b1561146157600061133d84610cdf565b9050600073ffffffffffffffffffffffffffffffffffffffff168373ffffffffffffffffffffffffffffffffffffffff16141580156113a857508273ffffffffffffffffffffffffffffffffffffffff168173ffffffffffffffffffffffffffffffffffffffff1614155b80156113bb57506113b98184610ae3565b155b156113fd57826040517fa9fbf51f0000000000000000000000000000000000000000000000000000000081526004016113f49190611c9e565b60405180910390fd5b811561145f57838573ffffffffffffffffffffffffffffffffffffffff168273ffffffffffffffffffffffffffffffffffffffff167f8c5be1e5ebec7d5bd14f71427d1e84f3dd0314c0f7b2291e5b200ac8c7c3b92560405160405180910390a45b505b836005600085815260200190815260200160002060006101000a81548173ffffffffffffffffffffffffffffffffffffffff021916908373ffffffffffffffffffffffffffffffffffffffff16021790555050505050565b6060600060016114c8846117a1565b01905060008167ffffffffffffffff8111156114e7576114e6611e85565b5b6040519080825280601f01601f1916602001820160405280156115195781602001600182028036833780820191505090505b509050600082602001820190505b60011561157c578080600190039150507f3031323334353637383961626364656600000000000000000000000000000000600a86061a8153600a85816115705761156f612515565b5b04945060008503611527575b819350505050919050565b60008061159384610dbe565b9050600073ffffffffffffffffffffffffffffffffffffffff168373ffffffffffffffffffffffffffffffffffffffff16146115d5576115d48184866118f4565b5b600073ffffffffffffffffffffffffffffffffffffffff168173ffffffffffffffffffffffffffffffffffffffff1614611666576116176000856000806112f4565b6001600460008373ffffffffffffffffffffffffffffffffffffffff1673ffffffffffffffffffffffffffffffffffffffff168152602001908152602001600020600082825403925050819055505b600073ffffffffffffffffffffffffffffffffffffffff168573ffffffffffffffffffffffffffffffffffffffff16146116e9576001600460008773ffffffffffffffffffffffffffffffffffffffff1673ffffffffffffffffffffffffffffffffffffffff168152602001908152602001600020600082825401925050819055505b846003600086815260200190815260200160002060006101000a81548173ffffffffffffffffffffffffffffffffffffffff021916908373ffffffffffffffffffffffffffffffffffffffff160217905550838573ffffffffffffffffffffffffffffffffffffffff168273ffffffffffffffffffffffffffffffffffffffff167fddf252ad1be2c89b69c2b068fc378daa952ba7f163c4a11628f55a4df523b3ef60405160405180910390a4809150509392505050565b600080600090507a184f03e93ff9f4daa797ed6e38ed64bf6a1f01000000000000000083106117ff577a184f03e93ff9f4daa797ed6e38ed64bf6a1f01000000000000000083816117f5576117f4612515565b5b0492506040810190505b6d04ee2d6d415b85acef8100000000831061183c576d04ee2d6d415b85acef8100000000838161183257611831612515565b5b0492506020810190505b662386f26fc10000831061186b57662386f26fc10000838161186157611860612515565b5b0492506010810190505b6305f5e1008310611894576305f5e100838161188a57611889612515565b5b0492506008810190505b61271083106118b95761271083816118af576118ae612515565b5b0492506004810190505b606483106118dc57606483816118d2576118d1612515565b5b0492506002810190505b600a83106118eb576001810190505b80915050919050565b6118ff8383836119b8565b6119b357600073ffffffffffffffffffffffffffffffffffffffff168373ffffffffffffffffffffffffffffffffffffffff160361197457806040517f7e27328900000000000000000000000000000000000000000000000000000000815260040161196b9190611df4565b60405180910390fd5b81816040517f177e802f0000000000000000000000000000000000000000000000000000000081526004016119aa929190612544565b60405180910390fd5b505050565b60008073ffffffffffffffffffffffffffffffffffffffff168373ffffffffffffffffffffffffffffffffffffffff1614158015611a7057508273ffffffffffffffffffffffffffffffffffffffff168473ffffffffffffffffffffffffffffffffffffffff161480611a315750611a308484610ae3565b5b80611a6f57508273ffffffffffffffffffffffffffffffffffffffff16611a5783610d67565b73ffffffffffffffffffffffffffffffffffffffff16145b5b90509392505050565b6000604051905090565b600080fd5b600080fd5b60007fffffffff0000000000000000000000000000000000000000000000000000000082169050919050565b611ac281611a8d565b8114611acd57600080fd5b50565b600081359050611adf81611ab9565b92915050565b600060208284031215611afb57611afa611a83565b5b6000611b0984828501611ad0565b91505092915050565b60008115159050919050565b611b2781611b12565b82525050565b6000602082019050611b426000830184611b1e565b92915050565b600081519050919050565b600082825260208201905092915050565b60005b83811015611b82578082015181840152602081019050611b67565b60008484015250505050565b6000601f19601f8301169050919050565b6000611baa82611b48565b611bb48185611b53565b9350611bc4818560208601611b64565b611bcd81611b8e565b840191505092915050565b60006020820190508181036000830152611bf28184611b9f565b905092915050565b6000819050919050565b611c0d81611bfa565b8114611c1857600080fd5b50565b600081359050611c2a81611c04565b92915050565b600060208284031215611c4657611c45611a83565b5b6000611c5484828501611c1b565b91505092915050565b600073ffffffffffffffffffffffffffffffffffffffff82169050919050565b6000611c8882611c5d565b9050919050565b611c9881611c7d565b82525050565b6000602082019050611cb36000830184611c8f565b92915050565b611cc281611c7d565b8114611ccd57600080fd5b50565b600081359050611cdf81611cb9565b92915050565b60008060408385031215611cfc57611cfb611a83565b5b6000611d0a85828601611cd0565b9250506020611d1b85828601611c1b565b9150509250929050565b600080600060608486031215611d3e57611d3d611a83565b5b6000611d4c86828701611cd0565b9350506020611d5d86828701611cd0565b9250506040611d6e86828701611c1b565b9150509250925092565b60008060408385031215611d8f57611d8e611a83565b5b6000611d9d85828601611c1b565b9250506020611dae85828601611cd0565b9150509250929050565b600060208284031215611dce57611dcd611a83565b5b6000611ddc84828501611cd0565b91505092915050565b611dee81611bfa565b82525050565b6000602082019050611e096000830184611de5565b92915050565b611e1881611b12565b8114611e2357600080fd5b50565b600081359050611e3581611e0f565b92915050565b60008060408385031215611e5257611e51611a83565b5b6000611e6085828601611cd0565b9250506020611e7185828601611e26565b9150509250929050565b600080fd5b600080fd5b7f4e487b7100000000000000000000000000000000000000000000000000000000600052604160045260246000fd5b611ebd82611b8e565b810181811067ffffffffffffffff82111715611edc57611edb611e85565b5b80604052505050565b6000611eef611a79565b9050611efb8282611eb4565b919050565b600067ffffffffffffffff821115611f1b57611f1a611e85565b5b611f2482611b8e565b9050602081019050919050565b82818337600083830152505050565b6000611f53611f4e84611f00565b611ee5565b905082815260208101848484011115611f6f57611f6e611e80565b5b611f7a848285611f31565b509392505050565b600082601f830112611f9757611f96611e7b565b5b8135611fa7848260208601611f40565b91505092915050565b60008060008060808587031215611fca57611fc9611a83565b5b6000611fd887828801611cd0565b9450506020611fe987828801611cd0565b9350506040611ffa87828801611c1b565b925050606085013567ffffffffffffffff81111561201b5761201a611a88565b5b61202787828801611f82565b91505092959194509250565b6000806040838503121561204a57612049611a83565b5b600061205885828601611c1b565b925050602061206985828601611e26565b9150509250929050565b600080fd5b600080fd5b60008083601f84011261209357612092611e7b565b5b8235905067ffffffffffffffff8111156120b0576120af612073565b5b6020830191508360018202830111156120cc576120cb612078565b5b9250929050565b600080602083850312156120ea576120e9611a83565b5b600083013567ffffffffffffffff81111561210857612107611a88565b5b6121148582860161207d565b92509250509250929050565b6000806040838503121561213757612136611a83565b5b600061214585828601611cd0565b925050602061215685828601611cd0565b9150509250929050565b7f4e487b7100000000000000000000000000000000000000000000000000000000600052602260045260246000fd5b600060028204905060018216806121a757607f821691505b6020821081036121ba576121b9612160565b5b50919050565b600081905092915050565b60006121d682611b48565b6121e081856121c0565b93506121f0818560208601611b64565b80840191505092915050565b600061220882856121cb565b915061221482846121cb565b91508190509392505050565b7f4e487b7100000000000000000000000000000000000000000000000000000000600052601160045260246000fd5b600061225a82611bfa565b91507fffffffffffffffffffffffffffffffffffffffffffffffffffffffffffffffff820361228c5761228b612220565b5b600182019050919050565b60008190508160005260206000209050919050565b60006020601f8301049050919050565b600082821b905092915050565b6000600883026122f97fffffffffffffffffffffffffffffffffffffffffffffffffffffffffffffffff826122bc565b61230386836122bc565b95508019841693508086168417925050509392505050565b6000819050919050565b600061234061233b61233684611bfa565b61231b565b611bfa565b9050919050565b6000819050919050565b61235a83612325565b61236e61236682612347565b8484546122c9565b825550505050565b600090565b612383612376565b61238e818484612351565b505050565b5b818110156123b2576123a760008261237b565b600181019050612394565b5050565b601f8211156123f7576123c881612297565b6123d1846122ac565b810160208510156123e0578190505b6123f46123ec856122ac565b830182612393565b50505b505050565b600082821c905092915050565b600061241a600019846008026123fc565b1980831691505092915050565b60006124338383612409565b9150826002028217905092915050565b61244c82611b48565b67ffffffffffffffff81111561246557612464611e85565b5b61246f825461218f565b61247a8282856123b6565b600060209050601f8311600181146124ad576000841561249b578287015190505b6124a58582612427565b86555061250d565b601f1984166124bb86612297565b60005b828110156124e3578489015182556001820191506020850194506020810190506124be565b8683101561250057848901516124fc601f891682612409565b8355505b6001600288020188555050505b505050505050565b7f4e487b7100000000000000000000000000000000000000000000000000000000600052601260045260246000fd5b60006040820190506125596000830185611c8f565b6125666020830184611de5565b939250505056fea2646970667358221220c35b18bd70623ca5d3bc045dc93891b99138cefa0012f7ef1537613482304aca64736f6c63430008140033",
  "linkReferences": {},
  "deployedLinkReferences": {}
}