{
  "_format": "hh-sol-artifact-1",
  "contractName": "Merchandise",
  "sourceName": "contracts/Merchandise.sol",
  "abi": [
    {
      "inputs": [
        {
          "internalType": "address",
          "name": "_labelDeliveryContract",
          "type": "address"
        }
      ],
      "stateMutability": "nonpayable",
      "type": "constructor"
    },
    {
      "inputs": [],
      "name": "ECDSAInvalidSignature",
      "type": "error"
    },
    {
      "inputs": [
        {
          "internalType": "uint256",
          "name": "length",
          "type": "uint256"
        }
      ],
      "name": "ECDSAInvalidSignatureLength",
      "type": "error"
    },
    {
      "inputs": [
        {
          "internalType": "bytes32",
          "name": "s",
          "type": "bytes32"
        }
      ],
      "name": "ECDSAInvalidSignatureS",
      "type": "error"
    },
    {
      "inputs": [
        {
          "internalType": "uint256",
          "name": "idsLength",
          "type": "uint256"
        },
        {
          "internalType": "uint256",
          "name": "valuesLength",
          "type": "uint256"
        }
      ],
      "name": "ERC6150InvalidArrayLength",
      "type": "error"
    },
    {
      "inputs": [
        {
          "internalType": "uint256",
          "name": "parent",
          "type": "uint256"
        }
      ],
      "name": "ERC6150InvalidParent",
      "type": "error"
    },
    {
      "inputs": [
        {
          "internalType": "uint256",
          "name": "parentLength",
          "type": "uint256"
        }
      ],
      "name": "ERC6150InvalidParentLength",
      "type": "error"
    },
    {
      "inputs": [
        {
          "internalType": "address",
          "name": "sender",
          "type": "address"
        },
        {
          "internalType": "uint256",
          "name": "tokenId",
          "type": "uint256"
        },
        {
          "internalType": "address",
          "name": "owner",
          "type": "address"
        }
      ],
      "name": "ERC721IncorrectOwner",
      "type": "error"
    },
    {
      "inputs": [
        {
          "internalType": "address",
          "name": "operator",
          "type": "address"
        },
        {
          "internalType": "uint256",
          "name": "tokenId",
          "type": "uint256"
        }
      ],
      "name": "ERC721InsufficientApproval",
      "type": "error"
    },
    {
      "inputs": [
        {
          "internalType": "address",
          "name": "approver",
          "type": "address"
        }
      ],
      "name": "ERC721InvalidApprover",
      "type": "error"
    },
    {
      "inputs": [
        {
          "internalType": "address",
          "name": "operator",
          "type": "address"
        }
      ],
      "name": "ERC721InvalidOperator",
      "type": "error"
    },
    {
      "inputs": [
        {
          "internalType": "address",
          "name": "owner",
          "type": "address"
        }
      ],
      "name": "ERC721InvalidOwner",
      "type": "error"
    },
    {
      "inputs": [
        {
          "internalType": "address",
          "name": "receiver",
          "type": "address"
        }
      ],
      "name": "ERC721InvalidReceiver",
      "type": "error"
    },
    {
      "inputs": [
        {
          "internalType": "address",
          "name": "sender",
          "type": "address"
        }
      ],
      "name": "ERC721InvalidSender",
      "type": "error"
    },
    {
      "inputs": [
        {
          "internalType": "uint256",
          "name": "tokenId",
          "type": "uint256"
        }
      ],
      "name": "ERC721NonexistentToken",
      "type": "error"
    },
    {
      "inputs": [
        {
          "internalType": "address",
          "name": "addr",
          "type": "address"
        },
        {
          "internalType": "uint256",
          "name": "merchandiseId",
          "type": "uint256"
        }
      ],
      "name": "NotAccepted",
      "type": "error"
    },
    {
      "inputs": [
        {
          "internalType": "address",
          "name": "addr",
          "type": "address"
        },
        {
          "internalType": "uint256",
          "name": "labelId",
          "type": "uint256"
        }
      ],
      "name": "NotCertified",
      "type": "error"
    },
    {
      "inputs": [
        {
          "internalType": "address",
          "name": "addr",
          "type": "address"
        },
        {
          "internalType": "uint256",
          "name": "merchandiseId",
          "type": "uint256"
        }
      ],
      "name": "NotMandated",
      "type": "error"
    },
    {
      "inputs": [
        {
          "internalType": "address",
          "name": "addr",
          "type": "address"
        },
        {
          "internalType": "uint256",
          "name": "merchandiseId",
          "type": "uint256"
        }
      ],
      "name": "NotOwner",
      "type": "error"
    },
    {
      "inputs": [
        {
          "internalType": "address",
          "name": "addr",
          "type": "address"
        },
        {
          "internalType": "uint256",
          "name": "merchandiseId",
          "type": "uint256"
        }
      ],
      "name": "NotReciever",
      "type": "error"
    },
    {
      "inputs": [],
      "name": "WronnSignature",
      "type": "error"
    },
    {
      "anonymous": false,
      "inputs": [
        {
          "indexed": true,
          "internalType": "address",
          "name": "owner",
          "type": "address"
        },
        {
          "indexed": true,
          "internalType": "address",
          "name": "approved",
          "type": "address"
        },
        {
          "indexed": true,
          "internalType": "uint256",
          "name": "tokenId",
          "type": "uint256"
        }
      ],
      "name": "Approval",
      "type": "event"
    },
    {
      "anonymous": false,
      "inputs": [
        {
          "indexed": true,
          "internalType": "address",
          "name": "owner",
          "type": "address"
        },
        {
          "indexed": true,
          "internalType": "address",
          "name": "operator",
          "type": "address"
        },
        {
          "indexed": false,
          "internalType": "bool",
          "name": "approved",
          "type": "bool"
        }
      ],
      "name": "ApprovalForAll",
      "type": "event"
    },
    {
      "anonymous": false,
      "inputs": [
        {
          "indexed": true,
          "internalType": "address",
          "name": "minter",
          "type": "address"
        },
        {
          "indexed": true,
          "internalType": "address",
          "name": "to",
          "type": "address"
        },
        {
          "indexed": false,
          "internalType": "uint256[]",
          "name": "parentId",
          "type": "uint256[]"
        },
        {
          "indexed": false,
          "internalType": "uint256",
          "name": "tokenId",
          "type": "uint256"
        }
      ],
      "name": "Minted",
      "type": "event"
    },
    {
      "anonymous": false,
      "inputs": [
        {
          "indexed": true,
          "internalType": "address",
          "name": "from",
          "type": "address"
        },
        {
          "indexed": false,
          "internalType": "uint256",
          "name": "labelId",
          "type": "uint256"
        },
        {
          "indexed": false,
          "internalType": "uint256",
          "name": "merchandiseId",
          "type": "uint256"
        }
      ],
      "name": "MintedWithLabel",
      "type": "event"
    },
    {
      "anonymous": false,
      "inputs": [
        {
          "indexed": true,
          "internalType": "address",
          "name": "from",
          "type": "address"
        },
        {
          "indexed": true,
          "internalType": "address",
          "name": "to",
          "type": "address"
        },
        {
          "indexed": true,
          "internalType": "uint256",
          "name": "tokenId",
          "type": "uint256"
        }
      ],
      "name": "Transfer",
      "type": "event"
    },
    {
      "anonymous": false,
      "inputs": [
        {
          "indexed": true,
          "internalType": "uint256",
          "name": "_merchandiseId",
          "type": "uint256"
        },
        {
          "indexed": true,
          "internalType": "address",
          "name": "from",
          "type": "address"
        },
        {
          "indexed": true,
          "internalType": "address",
          "name": "by",
          "type": "address"
        },
        {
          "indexed": false,
          "internalType": "address",
          "name": "to",
          "type": "address"
        },
        {
          "indexed": false,
          "internalType": "enum Merchandise.MandateStatus",
          "name": "status",
          "type": "uint8"
        }
      ],
      "name": "TransportMerchandise",
      "type": "event"
    },
    {
      "inputs": [
        {
          "internalType": "uint256",
          "name": "_merchandiseId",
          "type": "uint256"
        },
        {
          "internalType": "bytes",
          "name": "sign",
          "type": "bytes"
        }
      ],
      "name": "acceptTransport",
      "outputs": [],
      "stateMutability": "nonpayable",
      "type": "function"
    },
    {
      "inputs": [
        {
          "internalType": "address",
          "name": "to",
          "type": "address"
        },
        {
          "internalType": "uint256",
          "name": "tokenId",
          "type": "uint256"
        }
      ],
      "name": "approve",
      "outputs": [],
      "stateMutability": "nonpayable",
      "type": "function"
    },
    {
      "inputs": [
        {
          "internalType": "address",
          "name": "owner",
          "type": "address"
        }
      ],
      "name": "balanceOf",
      "outputs": [
        {
          "internalType": "uint256",
          "name": "",
          "type": "uint256"
        }
      ],
      "stateMutability": "view",
      "type": "function"
    },
    {
      "inputs": [
        {
          "internalType": "uint256",
          "name": "tokenId",
          "type": "uint256"
        }
      ],
      "name": "childrenOf",
      "outputs": [
        {
          "internalType": "uint256[]",
          "name": "childrenIds",
          "type": "uint256[]"
        }
      ],
      "stateMutability": "view",
      "type": "function"
    },
    {
      "inputs": [
        {
          "internalType": "uint256",
          "name": "tokenId",
          "type": "uint256"
        }
      ],
      "name": "getApproved",
      "outputs": [
        {
          "internalType": "address",
          "name": "",
          "type": "address"
        }
      ],
      "stateMutability": "view",
      "type": "function"
    },
    {
      "inputs": [
        {
          "internalType": "address",
          "name": "owner",
          "type": "address"
        },
        {
          "internalType": "address",
          "name": "operator",
          "type": "address"
        }
      ],
      "name": "isApprovedForAll",
      "outputs": [
        {
          "internalType": "bool",
          "name": "",
          "type": "bool"
        }
      ],
      "stateMutability": "view",
      "type": "function"
    },
    {
      "inputs": [
        {
          "internalType": "uint256",
          "name": "tokenId",
          "type": "uint256"
        }
      ],
      "name": "isLeaf",
      "outputs": [
        {
          "internalType": "bool",
          "name": "",
          "type": "bool"
        }
      ],
      "stateMutability": "view",
      "type": "function"
    },
    {
      "inputs": [
        {
          "internalType": "uint256",
          "name": "_merchandiseId",
          "type": "uint256"
        },
        {
          "internalType": "address",
          "name": "by",
          "type": "address"
        },
        {
          "internalType": "address",
          "name": "to",
          "type": "address"
        }
      ],
      "name": "isMandate",
      "outputs": [
        {
          "internalType": "bool",
          "name": "",
          "type": "bool"
        }
      ],
      "stateMutability": "view",
      "type": "function"
    },
    {
      "inputs": [
        {
          "internalType": "uint256",
          "name": "_merchandiseId",
          "type": "uint256"
        },
        {
          "internalType": "address",
          "name": "by",
          "type": "address"
        }
      ],
      "name": "isMandateAccepted",
      "outputs": [
        {
          "internalType": "bool",
          "name": "",
          "type": "bool"
        }
      ],
      "stateMutability": "view",
      "type": "function"
    },
    {
      "inputs": [
        {
          "internalType": "uint256",
          "name": "tokenId",
          "type": "uint256"
        }
      ],
      "name": "isRoot",
      "outputs": [
        {
          "internalType": "bool",
          "name": "",
          "type": "bool"
        }
      ],
      "stateMutability": "view",
      "type": "function"
    },
    {
      "inputs": [
        {
          "internalType": "uint256",
          "name": "_merchandiseId",
          "type": "uint256"
        },
        {
          "internalType": "address",
          "name": "by",
          "type": "address"
        }
      ],
      "name": "isTransportValidated",
      "outputs": [
        {
          "internalType": "bool",
          "name": "",
          "type": "bool"
        }
      ],
      "stateMutability": "view",
      "type": "function"
    },
    {
      "inputs": [
        {
          "internalType": "address",
          "name": "by",
          "type": "address"
        },
        {
          "internalType": "address",
          "name": "to",
          "type": "address"
        },
        {
          "internalType": "uint256",
          "name": "_merchandiseId",
          "type": "uint256"
        }
      ],
      "name": "mandateTransport",
      "outputs": [],
      "stateMutability": "nonpayable",
      "type": "function"
    },
    {
      "inputs": [
        {
          "internalType": "string[]",
          "name": "_tokenUris",
          "type": "string[]"
        },
        {
          "internalType": "uint256",
          "name": "_merchandiseId",
          "type": "uint256"
        }
      ],
      "name": "mintBatchWithParent",
      "outputs": [],
      "stateMutability": "nonpayable",
      "type": "function"
    },
    {
      "inputs": [
        {
          "internalType": "string",
          "name": "_tokenUri",
          "type": "string"
        },
        {
          "internalType": "uint256",
          "name": "_labelId",
          "type": "uint256"
        }
      ],
      "name": "mintWithLabel",
      "outputs": [],
      "stateMutability": "nonpayable",
      "type": "function"
    },
    {
      "inputs": [
        {
          "internalType": "string",
          "name": "_tokenUri",
          "type": "string"
        },
        {
          "internalType": "uint256",
          "name": "_merchandiseId",
          "type": "uint256"
        }
      ],
      "name": "mintWithParent",
      "outputs": [],
      "stateMutability": "nonpayable",
      "type": "function"
    },
    {
      "inputs": [
        {
          "internalType": "string",
          "name": "_tokenUri",
          "type": "string"
        },
        {
          "internalType": "uint256[]",
          "name": "_parentIds",
          "type": "uint256[]"
        }
      ],
      "name": "mintWithParents",
      "outputs": [],
      "stateMutability": "nonpayable",
      "type": "function"
    },
    {
      "inputs": [],
      "name": "name",
      "outputs": [
        {
          "internalType": "string",
          "name": "",
          "type": "string"
        }
      ],
      "stateMutability": "view",
      "type": "function"
    },
    {
      "inputs": [
        {
          "internalType": "uint256",
          "name": "tokenId",
          "type": "uint256"
        }
      ],
      "name": "ownerOf",
      "outputs": [
        {
          "internalType": "address",
          "name": "",
          "type": "address"
        }
      ],
      "stateMutability": "view",
      "type": "function"
    },
    {
      "inputs": [
        {
          "internalType": "uint256",
          "name": "tokenId",
          "type": "uint256"
        }
      ],
      "name": "parentsOf",
      "outputs": [
        {
          "internalType": "uint256[]",
          "name": "parentId",
          "type": "uint256[]"
        }
      ],
      "stateMutability": "view",
      "type": "function"
    },
    {
      "inputs": [
        {
          "internalType": "address",
          "name": "from",
          "type": "address"
        },
        {
          "internalType": "address",
          "name": "to",
          "type": "address"
        },
        {
          "internalType": "uint256",
          "name": "tokenId",
          "type": "uint256"
        }
      ],
      "name": "safeTransferFrom",
      "outputs": [],
      "stateMutability": "nonpayable",
      "type": "function"
    },
    {
      "inputs": [
        {
          "internalType": "address",
          "name": "from",
          "type": "address"
        },
        {
          "internalType": "address",
          "name": "to",
          "type": "address"
        },
        {
          "internalType": "uint256",
          "name": "tokenId",
          "type": "uint256"
        },
        {
          "internalType": "bytes",
          "name": "data",
          "type": "bytes"
        }
      ],
      "name": "safeTransferFrom",
      "outputs": [],
      "stateMutability": "nonpayable",
      "type": "function"
    },
    {
      "inputs": [
        {
          "internalType": "address",
          "name": "operator",
          "type": "address"
        },
        {
          "internalType": "bool",
          "name": "approved",
          "type": "bool"
        }
      ],
      "name": "setApprovalForAll",
      "outputs": [],
      "stateMutability": "nonpayable",
      "type": "function"
    },
    {
      "inputs": [
        {
          "internalType": "bytes4",
          "name": "interfaceId",
          "type": "bytes4"
        }
      ],
      "name": "supportsInterface",
      "outputs": [
        {
          "internalType": "bool",
          "name": "",
          "type": "bool"
        }
      ],
      "stateMutability": "view",
      "type": "function"
    },
    {
      "inputs": [],
      "name": "symbol",
      "outputs": [
        {
          "internalType": "string",
          "name": "",
          "type": "string"
        }
      ],
      "stateMutability": "view",
      "type": "function"
    },
    {
      "inputs": [
        {
          "internalType": "uint256",
          "name": "tokenId",
          "type": "uint256"
        }
      ],
      "name": "tokenURI",
      "outputs": [
        {
          "internalType": "string",
          "name": "",
          "type": "string"
        }
      ],
      "stateMutability": "view",
      "type": "function"
    },
    {
      "inputs": [
        {
          "internalType": "address",
          "name": "from",
          "type": "address"
        },
        {
          "internalType": "address",
          "name": "to",
          "type": "address"
        },
        {
          "internalType": "uint256",
          "name": "tokenId",
          "type": "uint256"
        }
      ],
      "name": "transferFrom",
      "outputs": [],
      "stateMutability": "nonpayable",
      "type": "function"
    },
    {
      "inputs": [
        {
          "internalType": "uint256",
          "name": "_merchandiseId",
          "type": "uint256"
        },
        {
          "internalType": "address",
          "name": "by",
          "type": "address"
        },
        {
          "internalType": "bytes32",
          "name": "_salt",
          "type": "bytes32"
        }
      ],
      "name": "validateTransport",
      "outputs": [],
      "stateMutability": "nonpayable",
      "type": "function"
    }
  ],
  "bytecode": "0x60a06040523480156200001157600080fd5b5060405162004d3d38038062004d3d833981810160405281019062000037919062000172565b6040518060400160405280601681526020017f526f62696e576f6f64204d65726368616e6469736573000000000000000000008152506040518060400160405280600381526020017f52574d000000000000000000000000000000000000000000000000000000000081525081818160009081620000b691906200041e565b508060019081620000c891906200041e565b50505050508073ffffffffffffffffffffffffffffffffffffffff1660808173ffffffffffffffffffffffffffffffffffffffff16815250505062000505565b600080fd5b600073ffffffffffffffffffffffffffffffffffffffff82169050919050565b60006200013a826200010d565b9050919050565b6200014c816200012d565b81146200015857600080fd5b50565b6000815190506200016c8162000141565b92915050565b6000602082840312156200018b576200018a62000108565b5b60006200019b848285016200015b565b91505092915050565b600081519050919050565b7f4e487b7100000000000000000000000000000000000000000000000000000000600052604160045260246000fd5b7f4e487b7100000000000000000000000000000000000000000000000000000000600052602260045260246000fd5b600060028204905060018216806200022657607f821691505b6020821081036200023c576200023b620001de565b5b50919050565b60008190508160005260206000209050919050565b60006020601f8301049050919050565b600082821b905092915050565b600060088302620002a67fffffffffffffffffffffffffffffffffffffffffffffffffffffffffffffffff8262000267565b620002b2868362000267565b95508019841693508086168417925050509392505050565b6000819050919050565b6000819050919050565b6000620002ff620002f9620002f384620002ca565b620002d4565b620002ca565b9050919050565b6000819050919050565b6200031b83620002de565b620003336200032a8262000306565b84845462000274565b825550505050565b600090565b6200034a6200033b565b6200035781848462000310565b505050565b5b818110156200037f576200037360008262000340565b6001810190506200035d565b5050565b601f821115620003ce57620003988162000242565b620003a38462000257565b81016020851015620003b3578190505b620003cb620003c28562000257565b8301826200035c565b50505b505050565b600082821c905092915050565b6000620003f360001984600802620003d3565b1980831691505092915050565b60006200040e8383620003e0565b9150826002028217905092915050565b6200042982620001a4565b67ffffffffffffffff811115620004455762000444620001af565b5b6200045182546200020d565b6200045e82828562000383565b600060209050601f83116001811462000496576000841562000481578287015190505b6200048d858262000400565b865550620004fd565b601f198416620004a68662000242565b60005b82811015620004d057848901518255600182019150602085019450602081019050620004a9565b86831015620004f05784890151620004ec601f891682620003e0565b8355505b6001600288020188555050505b505050505050565b60805161481c620005216000396000610fb9015261481c6000f3fe608060405234801561001057600080fd5b50600436106101a95760003560e01c80636956d19f116100f9578063b26c000911610097578063cce3c13b11610071578063cce3c13b146104fe578063e527b9661461052e578063e985e9c51461055e578063f2f7c9db1461058e576101a9565b8063b26c000914610496578063b88d4fde146104b2578063c87b56dd146104ce576101a9565b80639043ea4d116100d35780639043ea4d14610410578063935b38cb1461042c57806395d89b411461045c578063a22cb4651461047a576101a9565b80636956d19f146103945780636f19951c146103b057806370a08231146103e0576101a9565b806326de059d116101665780634c88d42c116101405780634c88d42c146102fc57806358f216911461032c5780636352211e1461034857806368f5d06514610378576101a9565b806326de059d146102805780633bc58105146102b057806342842e0e146102e0576101a9565b806301ffc9a7146101ae57806303f24f3a146101de57806306fdde03146101fa578063081812fc14610218578063095ea7b31461024857806323b872dd14610264575b600080fd5b6101c860048036038101906101c39190613395565b6105aa565b6040516101d591906133dd565b60405180910390f35b6101f860048036038101906101f39190613493565b61068c565b005b61020261085d565b60405161020f9190613583565b60405180910390f35b610232600480360381019061022d91906135a5565b6108ef565b60405161023f9190613613565b60405180910390f35b610262600480360381019061025d919061365a565b61090b565b005b61027e6004803603810190610279919061369a565b610921565b005b61029a600480360381019061029591906135a5565b610a23565b6040516102a791906137ab565b60405180910390f35b6102ca60048036038101906102c591906137cd565b610a98565b6040516102d791906133dd565b60405180910390f35b6102fa60048036038101906102f5919061369a565b610b29565b005b6103166004803603810190610311919061380d565b610b49565b60405161032391906133dd565b60405180910390f35b6103466004803603810190610341919061369a565b610bf6565b005b610362600480360381019061035d91906135a5565b610e4f565b60405161036f9190613613565b60405180910390f35b610392600480360381019061038d91906138b6565b610e61565b005b6103ae60048036038101906103a9919061396c565b610fb7565b005b6103ca60048036038101906103c591906135a5565b61115f565b6040516103d791906137ab565b60405180910390f35b6103fa60048036038101906103f591906139cc565b6111de565b6040516104079190613a08565b60405180910390f35b61042a6004803603810190610425919061396c565b611298565b005b610446600480360381019061044191906137cd565b611324565b60405161045391906133dd565b60405180910390f35b6104646113b6565b6040516104719190613583565b60405180910390f35b610494600480360381019061048f9190613a4f565b611448565b005b6104b060048036038101906104ab9190613ac5565b61145e565b005b6104cc60048036038101906104c79190613c48565b6115e8565b005b6104e860048036038101906104e391906135a5565b611605565b6040516104f59190613583565b60405180910390f35b610518600480360381019061051391906135a5565b611718565b60405161052591906133dd565b60405180910390f35b610548600480360381019061054391906135a5565b611745565b60405161055591906133dd565b60405180910390f35b61057860048036038101906105739190613ccb565b611772565b60405161058591906133dd565b60405180910390f35b6105a860048036038101906105a39190613dce565b611806565b005b60007f80ac58cd000000000000000000000000000000000000000000000000000000007bffffffffffffffffffffffffffffffffffffffffffffffffffffffff1916827bffffffffffffffffffffffffffffffffffffffffffffffffffffffff1916148061067557507f5b5e139f000000000000000000000000000000000000000000000000000000007bffffffffffffffffffffffffffffffffffffffffffffffffffffffff1916827bffffffffffffffffffffffffffffffffffffffffffffffffffffffff1916145b806106855750610684826118cc565b5b9050919050565b61069583611936565b6001600a600085815260200190815260200160002060003373ffffffffffffffffffffffffffffffffffffffff1673ffffffffffffffffffffffffffffffffffffffff16815260200190815260200160002060000160146101000a81548160ff0219169083600281111561070c5761070b613e4a565b5b02179055508181600a600086815260200190815260200160002060003373ffffffffffffffffffffffffffffffffffffffff1673ffffffffffffffffffffffffffffffffffffffff1681526020019081526020016000206001019182610773929190614090565b503373ffffffffffffffffffffffffffffffffffffffff1661079484611a1f565b73ffffffffffffffffffffffffffffffffffffffff16847f1b1788d222b662606c9514031ede478c473fdd6007324af074fe4e36987f5d4e600a600088815260200190815260200160002060003373ffffffffffffffffffffffffffffffffffffffff1673ffffffffffffffffffffffffffffffffffffffff16815260200190815260200160002060000160009054906101000a900473ffffffffffffffffffffffffffffffffffffffff1660016040516108509291906141a8565b60405180910390a4505050565b60606000805461086c90613eb3565b80601f016020809104026020016040519081016040528092919081815260200182805461089890613eb3565b80156108e55780601f106108ba576101008083540402835291602001916108e5565b820191906000526020600020905b8154815290600101906020018083116108c857829003601f168201915b5050505050905090565b60006108fa82611a5c565b5061090482611ae4565b9050919050565b61091d8282610918611b21565b611b29565b5050565b600073ffffffffffffffffffffffffffffffffffffffff168273ffffffffffffffffffffffffffffffffffffffff16036109935760006040517f64a0ae9200000000000000000000000000000000000000000000000000000000815260040161098a9190613613565b60405180910390fd5b60006109a783836109a2611b21565b611b3b565b90508373ffffffffffffffffffffffffffffffffffffffff168173ffffffffffffffffffffffffffffffffffffffff1614610a1d578382826040517f64283d7b000000000000000000000000000000000000000000000000000000008152600401610a14939291906141d1565b60405180910390fd5b50505050565b6060610a2e82611a5c565b5060066000838152602001908152602001600020805480602002602001604051908101604052809291908181526020018280548015610a8c57602002820191906000526020600020905b815481526020019060010190808311610a78575b50505050509050919050565b6000600280811115610aad57610aac613e4a565b5b600a600085815260200190815260200160002060008473ffffffffffffffffffffffffffffffffffffffff1673ffffffffffffffffffffffffffffffffffffffff16815260200190815260200160002060000160149054906101000a900460ff166002811115610b2057610b1f613e4a565b5b14905092915050565b610b44838383604051806020016040528060008152506115e8565b505050565b60008173ffffffffffffffffffffffffffffffffffffffff16600a600086815260200190815260200160002060008573ffffffffffffffffffffffffffffffffffffffff1673ffffffffffffffffffffffffffffffffffffffff16815260200190815260200160002060000160009054906101000a900473ffffffffffffffffffffffffffffffffffffffff1673ffffffffffffffffffffffffffffffffffffffff161490509392505050565b610bff81611d55565b3373ffffffffffffffffffffffffffffffffffffffff168373ffffffffffffffffffffffffffffffffffffffff161480610c655750600073ffffffffffffffffffffffffffffffffffffffff168373ffffffffffffffffffffffffffffffffffffffff16145b15610ca757826040517fa9fbf51f000000000000000000000000000000000000000000000000000000008152600401610c9e9190613613565b60405180910390fd5b3373ffffffffffffffffffffffffffffffffffffffff168273ffffffffffffffffffffffffffffffffffffffff161480610d0d5750600073ffffffffffffffffffffffffffffffffffffffff168273ffffffffffffffffffffffffffffffffffffffff16145b15610d4f57816040517f64a0ae92000000000000000000000000000000000000000000000000000000008152600401610d469190613613565b60405180910390fd5b81600a600083815260200190815260200160002060008573ffffffffffffffffffffffffffffffffffffffff1673ffffffffffffffffffffffffffffffffffffffff16815260200190815260200160002060000160006101000a81548173ffffffffffffffffffffffffffffffffffffffff021916908373ffffffffffffffffffffffffffffffffffffffff1602179055508273ffffffffffffffffffffffffffffffffffffffff163373ffffffffffffffffffffffffffffffffffffffff16827f1b1788d222b662606c9514031ede478c473fdd6007324af074fe4e36987f5d4e856000604051610e429291906141a8565b60405180910390a4505050565b6000610e5a82611a5c565b9050919050565b610e6a81611d55565b60008383905067ffffffffffffffff811115610e8957610e88613b1d565b5b604051908082528060200260200182016040528015610eb75781602001602082028036833780820191505090505b50905060005b84849050811015610f9c5760086000815480929190610edb90614237565b91905055828281518110610ef257610ef161427f565b5b602002602001018181525050610f89828281518110610f1457610f1361427f565b5b6020026020010151868684818110610f2f57610f2e61427f565b5b9050602002810190610f4191906142bd565b8080601f016020809104026020016040519081016040528093929190818152602001838380828437600081840152601f19601f82011690508083019250505050505050611dd2565b8080610f9490614237565b915050610ebd565b50610fa8338383611df7565b610fb182611e56565b50505050565b7f000000000000000000000000000000000000000000000000000000000000000073ffffffffffffffffffffffffffffffffffffffff16633d04658c33836040518363ffffffff1660e01b8152600401611012929190614320565b602060405180830381865afa15801561102f573d6000803e3d6000fd5b505050506040513d601f19601f82011682018060405250810190611053919061435e565b6110965733816040517fe93e11c600000000000000000000000000000000000000000000000000000000815260040161108d929190614320565b60405180910390fd5b6000600860008154809291906110ab90614237565b9190505590506110ff8185858080601f016020809104026020016040519081016040528093929190818152602001838380828437600081840152601f19601f82011690508083019250505050505050611dd2565b6111093382611edc565b3373ffffffffffffffffffffffffffffffffffffffff167f13e61149c32eccc2fe3c50179b33203dd2a13bd66d9f154b573304303b453a06838360405161115192919061438b565b60405180910390a250505050565b606060008211156111755761117382611a5c565b505b600760008381526020019081526020016000208054806020026020016040519081016040528092919081815260200182805480156111d257602002820191906000526020600020905b8154815260200190600101908083116111be575b50505050509050919050565b60008073ffffffffffffffffffffffffffffffffffffffff168273ffffffffffffffffffffffffffffffffffffffff16036112515760006040517f89c62b640000000000000000000000000000000000000000000000000000000081526004016112489190613613565b60405180910390fd5b600360008373ffffffffffffffffffffffffffffffffffffffff1673ffffffffffffffffffffffffffffffffffffffff168152602001908152602001600020549050919050565b6112a181611d55565b6000600860008154809291906112b690614237565b91905055905061130a8185858080601f016020809104026020016040519081016040528093929190818152602001838380828437600081840152601f19601f82011690508083019250505050505050611dd2565b611315338383611fd5565b61131e82611e56565b50505050565b60006001600281111561133a57611339613e4a565b5b600a600085815260200190815260200160002060008473ffffffffffffffffffffffffffffffffffffffff1673ffffffffffffffffffffffffffffffffffffffff16815260200190815260200160002060000160149054906101000a900460ff1660028111156113ad576113ac613e4a565b5b14905092915050565b6060600180546113c590613eb3565b80601f01602080910402602001604051908101604052809291908181526020018280546113f190613eb3565b801561143e5780601f106114135761010080835404028352916020019161143e565b820191906000526020600020905b81548152906001019060200180831161142157829003601f168201915b5050505050905090565b61145a611453611b21565b8383611ff5565b5050565b6114688383612164565b611473838383612318565b6002600a600085815260200190815260200160002060008473ffffffffffffffffffffffffffffffffffffffff1673ffffffffffffffffffffffffffffffffffffffff16815260200190815260200160002060000160146101000a81548160ff021916908360028111156114ea576114e9613e4a565b5b02179055506000611577600a600086815260200190815260200160002060008573ffffffffffffffffffffffffffffffffffffffff1673ffffffffffffffffffffffffffffffffffffffff16815260200190815260200160002060000160009054906101000a900473ffffffffffffffffffffffffffffffffffffffff168561157287610e4f565b611b3b565b90508273ffffffffffffffffffffffffffffffffffffffff168173ffffffffffffffffffffffffffffffffffffffff16857f1b1788d222b662606c9514031ede478c473fdd6007324af074fe4e36987f5d4e3360026040516115da9291906141a8565b60405180910390a450505050565b6115f3848484610921565b6115ff848484846124a9565b50505050565b606061161082611a5c565b50600060096000848152602001908152602001600020805461163190613eb3565b80601f016020809104026020016040519081016040528092919081815260200182805461165d90613eb3565b80156116aa5780601f1061167f576101008083540402835291602001916116aa565b820191906000526020600020905b81548152906001019060200180831161168d57829003601f168201915b5050505050905060006116bb612660565b905060008151036116d0578192505050611713565b6000825111156117055780826040516020016116ed9291906143f0565b60405160208183030381529060405292505050611713565b61170e84612677565b925050505b919050565b600061172382611a5c565b5060006007600084815260200190815260200160002080549050149050919050565b600061175082611a5c565b5060006006600084815260200190815260200160002080549050149050919050565b6000600560008473ffffffffffffffffffffffffffffffffffffffff1673ffffffffffffffffffffffffffffffffffffffff16815260200190815260200160002060008373ffffffffffffffffffffffffffffffffffffffff1673ffffffffffffffffffffffffffffffffffffffff16815260200190815260200160002060009054906101000a900460ff16905092915050565b61180f816126e0565b60006008600081548092919061182490614237565b9190505590506118788185858080601f016020809104026020016040519081016040528093929190818152602001838380828437600081840152601f19601f82011690508083019250505050505050611dd2565b61188333838361276e565b60005b82518110156118c5576118b28382815181106118a5576118a461427f565b5b6020026020010151611e56565b80806118bd90614237565b915050611886565b5050505050565b60007f01ffc9a7000000000000000000000000000000000000000000000000000000007bffffffffffffffffffffffffffffffffffffffffffffffffffffffff1916827bffffffffffffffffffffffffffffffffffffffffffffffffffffffff1916149050919050565b600073ffffffffffffffffffffffffffffffffffffffff16600a600083815260200190815260200160002060003373ffffffffffffffffffffffffffffffffffffffff1673ffffffffffffffffffffffffffffffffffffffff16815260200190815260200160002060000160009054906101000a900473ffffffffffffffffffffffffffffffffffffffff1673ffffffffffffffffffffffffffffffffffffffff1603611a1c5733816040517f040e903e000000000000000000000000000000000000000000000000000000008152600401611a13929190614320565b60405180910390fd5b50565b60006002600083815260200190815260200160002060009054906101000a900473ffffffffffffffffffffffffffffffffffffffff169050919050565b600080611a6883611a1f565b9050600073ffffffffffffffffffffffffffffffffffffffff168173ffffffffffffffffffffffffffffffffffffffff1603611adb57826040517f7e273289000000000000000000000000000000000000000000000000000000008152600401611ad29190613a08565b60405180910390fd5b80915050919050565b60006004600083815260200190815260200160002060009054906101000a900473ffffffffffffffffffffffffffffffffffffffff169050919050565b600033905090565b611b36838383600161278e565b505050565b600080611b4784611a1f565b9050600073ffffffffffffffffffffffffffffffffffffffff168373ffffffffffffffffffffffffffffffffffffffff1614611b8957611b88818486612953565b5b600073ffffffffffffffffffffffffffffffffffffffff168173ffffffffffffffffffffffffffffffffffffffff1614611c1a57611bcb60008560008061278e565b6001600360008373ffffffffffffffffffffffffffffffffffffffff1673ffffffffffffffffffffffffffffffffffffffff168152602001908152602001600020600082825403925050819055505b600073ffffffffffffffffffffffffffffffffffffffff168573ffffffffffffffffffffffffffffffffffffffff1614611c9d576001600360008773ffffffffffffffffffffffffffffffffffffffff1673ffffffffffffffffffffffffffffffffffffffff168152602001908152602001600020600082825401925050819055505b846002600086815260200190815260200160002060006101000a81548173ffffffffffffffffffffffffffffffffffffffff021916908373ffffffffffffffffffffffffffffffffffffffff160217905550838573ffffffffffffffffffffffffffffffffffffffff168273ffffffffffffffffffffffffffffffffffffffff167fddf252ad1be2c89b69c2b068fc378daa952ba7f163c4a11628f55a4df523b3ef60405160405180910390a4809150509392505050565b3373ffffffffffffffffffffffffffffffffffffffff16611d7582611a1f565b73ffffffffffffffffffffffffffffffffffffffff1614611dcf5733816040517f6f7f64bf000000000000000000000000000000000000000000000000000000008152600401611dc6929190614320565b60405180910390fd5b50565b80600960008481526020019081526020016000209081611df2919061446f565b505050565b611e51838383845167ffffffffffffffff811115611e1857611e17613b1d565b5b604051908082528060200260200182016040528015611e4b57816020015b6060815260200190600190039081611e365790505b50612a17565b505050565b6000611e656001836000611b3b565b9050600073ffffffffffffffffffffffffffffffffffffffff168173ffffffffffffffffffffffffffffffffffffffff1603611ed857816040517f7e273289000000000000000000000000000000000000000000000000000000008152600401611ecf9190613a08565b60405180910390fd5b5050565b600073ffffffffffffffffffffffffffffffffffffffff168273ffffffffffffffffffffffffffffffffffffffff1603611f4e5760006040517f64a0ae92000000000000000000000000000000000000000000000000000000008152600401611f459190613613565b60405180910390fd5b6000611f5c83836000611b3b565b9050600073ffffffffffffffffffffffffffffffffffffffff168173ffffffffffffffffffffffffffffffffffffffff1614611fd05760006040517f73c6ac6e000000000000000000000000000000000000000000000000000000008152600401611fc79190613613565b60405180910390fd5b505050565b611ff083838360405180602001604052806000815250612ac7565b505050565b600073ffffffffffffffffffffffffffffffffffffffff168273ffffffffffffffffffffffffffffffffffffffff160361206657816040517f5b08ba1800000000000000000000000000000000000000000000000000000000815260040161205d9190613613565b60405180910390fd5b80600560008573ffffffffffffffffffffffffffffffffffffffff1673ffffffffffffffffffffffffffffffffffffffff16815260200190815260200160002060008473ffffffffffffffffffffffffffffffffffffffff1673ffffffffffffffffffffffffffffffffffffffff16815260200190815260200160002060006101000a81548160ff0219169083151502179055508173ffffffffffffffffffffffffffffffffffffffff168373ffffffffffffffffffffffffffffffffffffffff167f17307eab39ab6107e8899845ad3d59bd9653f200f220920489ca2b5937696c318360405161215791906133dd565b60405180910390a3505050565b3373ffffffffffffffffffffffffffffffffffffffff16600a600084815260200190815260200160002060008373ffffffffffffffffffffffffffffffffffffffff1673ffffffffffffffffffffffffffffffffffffffff16815260200190815260200160002060000160009054906101000a900473ffffffffffffffffffffffffffffffffffffffff1673ffffffffffffffffffffffffffffffffffffffff16146122495733826040517f1b567959000000000000000000000000000000000000000000000000000000008152600401612240929190614320565b60405180910390fd5b6001600281111561225d5761225c613e4a565b5b600a600084815260200190815260200160002060008373ffffffffffffffffffffffffffffffffffffffff1673ffffffffffffffffffffffffffffffffffffffff16815260200190815260200160002060000160149054906101000a900460ff1660028111156122d0576122cf613e4a565b5b146123145733826040517fde8666ed00000000000000000000000000000000000000000000000000000000815260040161230b929190614320565b60405180910390fd5b5050565b60008383338460405160200161233194939291906145cb565b6040516020818303038152906040528051906020012090508273ffffffffffffffffffffffffffffffffffffffff16612456600a600087815260200190815260200160002060008673ffffffffffffffffffffffffffffffffffffffff1673ffffffffffffffffffffffffffffffffffffffff16815260200190815260200160002060010180546123c190613eb3565b80601f01602080910402602001604051908101604052809291908181526020018280546123ed90613eb3565b801561243a5780601f1061240f5761010080835404028352916020019161243a565b820191906000526020600020905b81548152906001019060200180831161241d57829003601f168201915b505050505061244884612b49565b612b7f90919063ffffffff16565b73ffffffffffffffffffffffffffffffffffffffff16036124a3576040517fbcba6c9600000000000000000000000000000000000000000000000000000000815260040160405180910390fd5b50505050565b60008373ffffffffffffffffffffffffffffffffffffffff163b111561265a578273ffffffffffffffffffffffffffffffffffffffff1663150b7a026124ed611b21565b8685856040518563ffffffff1660e01b815260040161250f949392919061466e565b6020604051808303816000875af192505050801561254b57506040513d601f19601f8201168201806040525081019061254891906146cf565b60015b6125cf573d806000811461257b576040519150601f19603f3d011682016040523d82523d6000602084013e612580565b606091505b5060008151036125c757836040517f64a0ae920000000000000000000000000000000000000000000000000000000081526004016125be9190613613565b60405180910390fd5b805181602001fd5b63150b7a0260e01b7bffffffffffffffffffffffffffffffffffffffffffffffffffffffff1916817bffffffffffffffffffffffffffffffffffffffffffffffffffffffff19161461265857836040517f64a0ae9200000000000000000000000000000000000000000000000000000000815260040161264f9190613613565b60405180910390fd5b505b50505050565b606060405180602001604052806000815250905090565b606061268282611a5c565b50600061268d612660565b905060008151116126ad57604051806020016040528060008152506126d8565b806126b784612bab565b6040516020016126c89291906143f0565b6040516020818303038152906040525b915050919050565b60008151036127275780516040517f6e4b0ff900000000000000000000000000000000000000000000000000000000815260040161271e9190613a08565b60405180910390fd5b60005b815181101561276a576127568282815181106127495761274861427f565b5b6020026020010151611a5c565b50808061276290614237565b91505061272a565b5050565b61278983838360405180602001604052806000815250612c79565b505050565b80806127c75750600073ffffffffffffffffffffffffffffffffffffffff168273ffffffffffffffffffffffffffffffffffffffff1614155b156128fb5760006127d784611a5c565b9050600073ffffffffffffffffffffffffffffffffffffffff168373ffffffffffffffffffffffffffffffffffffffff161415801561284257508273ffffffffffffffffffffffffffffffffffffffff168173ffffffffffffffffffffffffffffffffffffffff1614155b801561285557506128538184611772565b155b1561289757826040517fa9fbf51f00000000000000000000000000000000000000000000000000000000815260040161288e9190613613565b60405180910390fd5b81156128f957838573ffffffffffffffffffffffffffffffffffffffff168273ffffffffffffffffffffffffffffffffffffffff167f8c5be1e5ebec7d5bd14f71427d1e84f3dd0314c0f7b2291e5b200ac8c7c3b92560405160405180910390a45b505b836004600085815260200190815260200160002060006101000a81548173ffffffffffffffffffffffffffffffffffffffff021916908373ffffffffffffffffffffffffffffffffffffffff16021790555050505050565b61295e838383612ddb565b612a1257600073ffffffffffffffffffffffffffffffffffffffff168373ffffffffffffffffffffffffffffffffffffffff16036129d357806040517f7e2732890000000000000000000000000000000000000000000000000000000081526004016129ca9190613a08565b60405180910390fd5b81816040517f177e802f000000000000000000000000000000000000000000000000000000008152600401612a09929190614320565b60405180910390fd5b505050565b8051825114612a6157815181516040517f1a689610000000000000000000000000000000000000000000000000000000008152600401612a5892919061438b565b60405180910390fd5b60005b8251811015612ac057612aad8585858481518110612a8557612a8461427f565b5b6020026020010151858581518110612aa057612a9f61427f565b5b6020026020010151612ac7565b8080612ab890614237565b915050612a64565b5050505050565b6000600167ffffffffffffffff811115612ae457612ae3613b1d565b5b604051908082528060200260200182016040528015612b125781602001602082028036833780820191505090505b5090508381600081518110612b2a57612b2961427f565b5b602002602001018181525050612b4285828585612c79565b5050505050565b60007f19457468657265756d205369676e6564204d6573736167653a0a33320000000060005281601c52603c6000209050919050565b600080600080612b8f8686612e9c565b925092509250612b9f8282612ef8565b82935050505092915050565b606060006001612bba8461305c565b01905060008167ffffffffffffffff811115612bd957612bd8613b1d565b5b6040519080825280601f01601f191660200182016040528015612c0b5781602001600182028036833780820191505090505b509050600082602001820190505b600115612c6e578080600190039150507f3031323334353637383961626364656600000000000000000000000000000000600a86061a8153600a8581612c6257612c616146fc565b5b04945060008503612c19575b819350505050919050565b60008203612cbe57816040517f4bb4fe78000000000000000000000000000000000000000000000000000000008152600401612cb59190613a08565b60405180910390fd5b612cc7836126e0565b82600660008481526020019081526020016000209080519060200190612cee9291906132bf565b5060005b8351811015612d625760076000858381518110612d1257612d1161427f565b5b602002602001015181526020019081526020016000208390806001815401808255809150506001900390600052602060002001600090919091909150558080612d5a90614237565b915050612cf2565b50612d6e8483836131af565b8373ffffffffffffffffffffffffffffffffffffffff163373ffffffffffffffffffffffffffffffffffffffff167f87601775a6747b64852d8a883baa91ab206ae1a4abf04f2aeef19b8d9df9a1758585604051612dcd92919061472b565b60405180910390a350505050565b60008073ffffffffffffffffffffffffffffffffffffffff168373ffffffffffffffffffffffffffffffffffffffff1614158015612e9357508273ffffffffffffffffffffffffffffffffffffffff168473ffffffffffffffffffffffffffffffffffffffff161480612e545750612e538484611772565b5b80612e9257508273ffffffffffffffffffffffffffffffffffffffff16612e7a83611ae4565b73ffffffffffffffffffffffffffffffffffffffff16145b5b90509392505050565b60008060006041845103612ee15760008060006020870151925060408701519150606087015160001a9050612ed3888285856131cb565b955095509550505050612ef1565b60006002855160001b9250925092505b9250925092565b60006003811115612f0c57612f0b613e4a565b5b826003811115612f1f57612f1e613e4a565b5b03156130585760016003811115612f3957612f38613e4a565b5b826003811115612f4c57612f4b613e4a565b5b03612f83576040517ff645eedf00000000000000000000000000000000000000000000000000000000815260040160405180910390fd5b60026003811115612f9757612f96613e4a565b5b826003811115612faa57612fa9613e4a565b5b03612fef578060001c6040517ffce698f7000000000000000000000000000000000000000000000000000000008152600401612fe69190613a08565b60405180910390fd5b60038081111561300257613001613e4a565b5b82600381111561301557613014613e4a565b5b0361305757806040517fd78bce0c00000000000000000000000000000000000000000000000000000000815260040161304e919061476a565b60405180910390fd5b5b5050565b600080600090507a184f03e93ff9f4daa797ed6e38ed64bf6a1f01000000000000000083106130ba577a184f03e93ff9f4daa797ed6e38ed64bf6a1f01000000000000000083816130b0576130af6146fc565b5b0492506040810190505b6d04ee2d6d415b85acef810000000083106130f7576d04ee2d6d415b85acef810000000083816130ed576130ec6146fc565b5b0492506020810190505b662386f26fc10000831061312657662386f26fc10000838161311c5761311b6146fc565b5b0492506010810190505b6305f5e100831061314f576305f5e1008381613145576131446146fc565b5b0492506008810190505b612710831061317457612710838161316a576131696146fc565b5b0492506004810190505b60648310613197576064838161318d5761318c6146fc565b5b0492506002810190505b600a83106131a6576001810190505b80915050919050565b6131b98383611edc565b6131c660008484846124a9565b505050565b60008060007f7fffffffffffffffffffffffffffffff5d576e7357a4501ddfe92f46681b20a08460001c111561320b5760006003859250925092506132b5565b60006001888888886040516000815260200160405260405161323094939291906147a1565b6020604051602081039080840390855afa158015613252573d6000803e3d6000fd5b505050602060405103519050600073ffffffffffffffffffffffffffffffffffffffff168173ffffffffffffffffffffffffffffffffffffffff16036132a657600060016000801b935093509350506132b5565b8060008060001b935093509350505b9450945094915050565b8280548282559060005260206000209081019282156132fb579160200282015b828111156132fa5782518255916020019190600101906132df565b5b509050613308919061330c565b5090565b5b8082111561332557600081600090555060010161330d565b5090565b6000604051905090565b600080fd5b600080fd5b60007fffffffff0000000000000000000000000000000000000000000000000000000082169050919050565b6133728161333d565b811461337d57600080fd5b50565b60008135905061338f81613369565b92915050565b6000602082840312156133ab576133aa613333565b5b60006133b984828501613380565b91505092915050565b60008115159050919050565b6133d7816133c2565b82525050565b60006020820190506133f260008301846133ce565b92915050565b6000819050919050565b61340b816133f8565b811461341657600080fd5b50565b60008135905061342881613402565b92915050565b600080fd5b600080fd5b600080fd5b60008083601f8401126134535761345261342e565b5b8235905067ffffffffffffffff8111156134705761346f613433565b5b60208301915083600182028301111561348c5761348b613438565b5b9250929050565b6000806000604084860312156134ac576134ab613333565b5b60006134ba86828701613419565b935050602084013567ffffffffffffffff8111156134db576134da613338565b5b6134e78682870161343d565b92509250509250925092565b600081519050919050565b600082825260208201905092915050565b60005b8381101561352d578082015181840152602081019050613512565b60008484015250505050565b6000601f19601f8301169050919050565b6000613555826134f3565b61355f81856134fe565b935061356f81856020860161350f565b61357881613539565b840191505092915050565b6000602082019050818103600083015261359d818461354a565b905092915050565b6000602082840312156135bb576135ba613333565b5b60006135c984828501613419565b91505092915050565b600073ffffffffffffffffffffffffffffffffffffffff82169050919050565b60006135fd826135d2565b9050919050565b61360d816135f2565b82525050565b60006020820190506136286000830184613604565b92915050565b613637816135f2565b811461364257600080fd5b50565b6000813590506136548161362e565b92915050565b6000806040838503121561367157613670613333565b5b600061367f85828601613645565b925050602061369085828601613419565b9150509250929050565b6000806000606084860312156136b3576136b2613333565b5b60006136c186828701613645565b93505060206136d286828701613645565b92505060406136e386828701613419565b9150509250925092565b600081519050919050565b600082825260208201905092915050565b6000819050602082019050919050565b613722816133f8565b82525050565b60006137348383613719565b60208301905092915050565b6000602082019050919050565b6000613758826136ed565b61376281856136f8565b935061376d83613709565b8060005b8381101561379e5781516137858882613728565b975061379083613740565b925050600181019050613771565b5085935050505092915050565b600060208201905081810360008301526137c5818461374d565b905092915050565b600080604083850312156137e4576137e3613333565b5b60006137f285828601613419565b925050602061380385828601613645565b9150509250929050565b60008060006060848603121561382657613825613333565b5b600061383486828701613419565b935050602061384586828701613645565b925050604061385686828701613645565b9150509250925092565b60008083601f8401126138765761387561342e565b5b8235905067ffffffffffffffff81111561389357613892613433565b5b6020830191508360208202830111156138af576138ae613438565b5b9250929050565b6000806000604084860312156138cf576138ce613333565b5b600084013567ffffffffffffffff8111156138ed576138ec613338565b5b6138f986828701613860565b9350935050602061390c86828701613419565b9150509250925092565b60008083601f84011261392c5761392b61342e565b5b8235905067ffffffffffffffff81111561394957613948613433565b5b60208301915083600182028301111561396557613964613438565b5b9250929050565b60008060006040848603121561398557613984613333565b5b600084013567ffffffffffffffff8111156139a3576139a2613338565b5b6139af86828701613916565b935093505060206139c286828701613419565b9150509250925092565b6000602082840312156139e2576139e1613333565b5b60006139f084828501613645565b91505092915050565b613a02816133f8565b82525050565b6000602082019050613a1d60008301846139f9565b92915050565b613a2c816133c2565b8114613a3757600080fd5b50565b600081359050613a4981613a23565b92915050565b60008060408385031215613a6657613a65613333565b5b6000613a7485828601613645565b9250506020613a8585828601613a3a565b9150509250929050565b6000819050919050565b613aa281613a8f565b8114613aad57600080fd5b50565b600081359050613abf81613a99565b92915050565b600080600060608486031215613ade57613add613333565b5b6000613aec86828701613419565b9350506020613afd86828701613645565b9250506040613b0e86828701613ab0565b9150509250925092565b600080fd5b7f4e487b7100000000000000000000000000000000000000000000000000000000600052604160045260246000fd5b613b5582613539565b810181811067ffffffffffffffff82111715613b7457613b73613b1d565b5b80604052505050565b6000613b87613329565b9050613b938282613b4c565b919050565b600067ffffffffffffffff821115613bb357613bb2613b1d565b5b613bbc82613539565b9050602081019050919050565b82818337600083830152505050565b6000613beb613be684613b98565b613b7d565b905082815260208101848484011115613c0757613c06613b18565b5b613c12848285613bc9565b509392505050565b600082601f830112613c2f57613c2e61342e565b5b8135613c3f848260208601613bd8565b91505092915050565b60008060008060808587031215613c6257613c61613333565b5b6000613c7087828801613645565b9450506020613c8187828801613645565b9350506040613c9287828801613419565b925050606085013567ffffffffffffffff811115613cb357613cb2613338565b5b613cbf87828801613c1a565b91505092959194509250565b60008060408385031215613ce257613ce1613333565b5b6000613cf085828601613645565b9250506020613d0185828601613645565b9150509250929050565b600067ffffffffffffffff821115613d2657613d25613b1d565b5b602082029050602081019050919050565b6000613d4a613d4584613d0b565b613b7d565b90508083825260208201905060208402830185811115613d6d57613d6c613438565b5b835b81811015613d965780613d828882613419565b845260208401935050602081019050613d6f565b5050509392505050565b600082601f830112613db557613db461342e565b5b8135613dc5848260208601613d37565b91505092915050565b600080600060408486031215613de757613de6613333565b5b600084013567ffffffffffffffff811115613e0557613e04613338565b5b613e1186828701613916565b9350935050602084013567ffffffffffffffff811115613e3457613e33613338565b5b613e4086828701613da0565b9150509250925092565b7f4e487b7100000000000000000000000000000000000000000000000000000000600052602160045260246000fd5b600082905092915050565b7f4e487b7100000000000000000000000000000000000000000000000000000000600052602260045260246000fd5b60006002820490506001821680613ecb57607f821691505b602082108103613ede57613edd613e84565b5b50919050565b60008190508160005260206000209050919050565b60006020601f8301049050919050565b600082821b905092915050565b600060088302613f467fffffffffffffffffffffffffffffffffffffffffffffffffffffffffffffffff82613f09565b613f508683613f09565b95508019841693508086168417925050509392505050565b6000819050919050565b6000613f8d613f88613f83846133f8565b613f68565b6133f8565b9050919050565b6000819050919050565b613fa783613f72565b613fbb613fb382613f94565b848454613f16565b825550505050565b600090565b613fd0613fc3565b613fdb818484613f9e565b505050565b5b81811015613fff57613ff4600082613fc8565b600181019050613fe1565b5050565b601f8211156140445761401581613ee4565b61401e84613ef9565b8101602085101561402d578190505b61404161403985613ef9565b830182613fe0565b50505b505050565b600082821c905092915050565b600061406760001984600802614049565b1980831691505092915050565b60006140808383614056565b9150826002028217905092915050565b61409a8383613e79565b67ffffffffffffffff8111156140b3576140b2613b1d565b5b6140bd8254613eb3565b6140c8828285614003565b6000601f8311600181146140f757600084156140e5578287013590505b6140ef8582614074565b865550614157565b601f19841661410586613ee4565b60005b8281101561412d57848901358255600182019150602085019450602081019050614108565b8683101561414a5784890135614146601f891682614056565b8355505b6001600288020188555050505b50505050505050565b6003811061417157614170613e4a565b5b50565b600081905061418282614160565b919050565b600061419282614174565b9050919050565b6141a281614187565b82525050565b60006040820190506141bd6000830185613604565b6141ca6020830184614199565b9392505050565b60006060820190506141e66000830186613604565b6141f360208301856139f9565b6142006040830184613604565b949350505050565b7f4e487b7100000000000000000000000000000000000000000000000000000000600052601160045260246000fd5b6000614242826133f8565b91507fffffffffffffffffffffffffffffffffffffffffffffffffffffffffffffffff820361427457614273614208565b5b600182019050919050565b7f4e487b7100000000000000000000000000000000000000000000000000000000600052603260045260246000fd5b600080fd5b600080fd5b600080fd5b600080833560016020038436030381126142da576142d96142ae565b5b80840192508235915067ffffffffffffffff8211156142fc576142fb6142b3565b5b602083019250600182023603831315614318576143176142b8565b5b509250929050565b60006040820190506143356000830185613604565b61434260208301846139f9565b9392505050565b60008151905061435881613a23565b92915050565b60006020828403121561437457614373613333565b5b600061438284828501614349565b91505092915050565b60006040820190506143a060008301856139f9565b6143ad60208301846139f9565b9392505050565b600081905092915050565b60006143ca826134f3565b6143d481856143b4565b93506143e481856020860161350f565b80840191505092915050565b60006143fc82856143bf565b915061440882846143bf565b91508190509392505050565b60008190508160005260206000209050919050565b601f82111561446a5761443b81614414565b61444484613ef9565b81016020851015614453578190505b61446761445f85613ef9565b830182613fe0565b50505b505050565b614478826134f3565b67ffffffffffffffff81111561449157614490613b1d565b5b61449b8254613eb3565b6144a6828285614429565b600060209050601f8311600181146144d957600084156144c7578287015190505b6144d18582614074565b865550614539565b601f1984166144e786614414565b60005b8281101561450f578489015182556001820191506020850194506020810190506144ea565b8683101561452c5784890151614528601f891682614056565b8355505b6001600288020188555050505b505050505050565b6000819050919050565b61455c614557826133f8565b614541565b82525050565b60008160601b9050919050565b600061457a82614562565b9050919050565b600061458c8261456f565b9050919050565b6145a461459f826135f2565b614581565b82525050565b6000819050919050565b6145c56145c082613a8f565b6145aa565b82525050565b60006145d7828761454b565b6020820191506145e78286614593565b6014820191506145f78285614593565b60148201915061460782846145b4565b60208201915081905095945050505050565b600081519050919050565b600082825260208201905092915050565b600061464082614619565b61464a8185614624565b935061465a81856020860161350f565b61466381613539565b840191505092915050565b60006080820190506146836000830187613604565b6146906020830186613604565b61469d60408301856139f9565b81810360608301526146af8184614635565b905095945050505050565b6000815190506146c981613369565b92915050565b6000602082840312156146e5576146e4613333565b5b60006146f3848285016146ba565b91505092915050565b7f4e487b7100000000000000000000000000000000000000000000000000000000600052601260045260246000fd5b60006040820190508181036000830152614745818561374d565b905061475460208301846139f9565b9392505050565b61476481613a8f565b82525050565b600060208201905061477f600083018461475b565b92915050565b600060ff82169050919050565b61479b81614785565b82525050565b60006080820190506147b6600083018761475b565b6147c36020830186614792565b6147d0604083018561475b565b6147dd606083018461475b565b9594505050505056fea2646970667358221220a167aa7e3dc93bf33b034b99f4864284578f36c36ded699f0831261a5d2a856264736f6c63430008140033",
  "linkReferences": {},
  "deployedLinkReferences": {}
}